{
  "_format": "hh-sol-artifact-1",
  "contractName": "GatewayFactory",
  "sourceName": "@renproject/gateway-sol/contracts/Gateway/GatewayFactory.sol",
  "abi": [
    {
      "inputs": [
        {
          "internalType": "address",
          "name": "_mintAuthority",
          "type": "address"
        },
        {
          "internalType": "string",
          "name": "_chainName",
          "type": "string"
        }
      ],
      "payable": false,
      "stateMutability": "nonpayable",
      "type": "constructor"
    },
    {
      "anonymous": false,
      "inputs": [
        {
          "indexed": true,
          "internalType": "address",
          "name": "previousOwner",
          "type": "address"
        },
        {
          "indexed": true,
          "internalType": "address",
          "name": "newOwner",
          "type": "address"
        }
      ],
      "name": "OwnershipTransferred",
      "type": "event"
    },
    {
      "constant": false,
      "inputs": [
        {
          "internalType": "address",
          "name": "newOwner",
          "type": "address"
        }
      ],
      "name": "_directTransferOwnership",
      "outputs": [],
      "payable": false,
      "stateMutability": "nonpayable",
      "type": "function"
    },
    {
      "constant": false,
      "inputs": [
        {
          "internalType": "string",
          "name": "_name",
          "type": "string"
        },
        {
          "internalType": "string",
          "name": "_symbol",
          "type": "string"
        },
        {
          "internalType": "uint8",
          "name": "_decimals",
          "type": "uint8"
        }
      ],
      "name": "addToken",
      "outputs": [],
      "payable": false,
      "stateMutability": "nonpayable",
      "type": "function"
    },
    {
      "constant": true,
      "inputs": [],
      "name": "chainName",
      "outputs": [
        {
          "internalType": "string",
          "name": "",
          "type": "string"
        }
      ],
      "payable": false,
      "stateMutability": "view",
      "type": "function"
    },
    {
      "constant": false,
      "inputs": [],
      "name": "claimOwnership",
      "outputs": [],
      "payable": false,
      "stateMutability": "nonpayable",
      "type": "function"
    },
    {
      "constant": true,
      "inputs": [
        {
          "internalType": "string",
          "name": "_tokenSymbol",
          "type": "string"
        }
      ],
      "name": "getGatewayBySymbol",
      "outputs": [
        {
          "internalType": "contract IGateway",
          "name": "",
          "type": "address"
        }
      ],
      "payable": false,
      "stateMutability": "view",
      "type": "function"
    },
    {
      "constant": true,
      "inputs": [
        {
          "internalType": "address",
          "name": "_token",
          "type": "address"
        }
      ],
      "name": "getGatewayByToken",
      "outputs": [
        {
          "internalType": "contract IGateway",
          "name": "",
          "type": "address"
        }
      ],
      "payable": false,
      "stateMutability": "view",
      "type": "function"
    },
    {
      "constant": true,
      "inputs": [
        {
          "internalType": "string",
          "name": "_tokenSymbol",
          "type": "string"
        }
      ],
      "name": "getTokenBySymbol",
      "outputs": [
        {
          "internalType": "contract IERC20",
          "name": "",
          "type": "address"
        }
      ],
      "payable": false,
      "stateMutability": "view",
      "type": "function"
    },
    {
      "constant": false,
      "inputs": [
        {
          "internalType": "address",
          "name": "_nextOwner",
          "type": "address"
        }
      ],
      "name": "initialize",
      "outputs": [],
      "payable": false,
      "stateMutability": "nonpayable",
      "type": "function"
    },
    {
      "constant": true,
      "inputs": [],
      "name": "isOwner",
      "outputs": [
        {
          "internalType": "bool",
          "name": "",
          "type": "bool"
        }
      ],
      "payable": false,
      "stateMutability": "view",
      "type": "function"
    },
    {
      "constant": true,
      "inputs": [],
      "name": "mintAuthority",
      "outputs": [
        {
          "internalType": "address",
          "name": "",
          "type": "address"
        }
      ],
      "payable": false,
      "stateMutability": "view",
      "type": "function"
    },
    {
      "constant": true,
      "inputs": [],
      "name": "owner",
      "outputs": [
        {
          "internalType": "address",
          "name": "",
          "type": "address"
        }
      ],
      "payable": false,
      "stateMutability": "view",
      "type": "function"
    },
    {
      "constant": true,
      "inputs": [],
      "name": "pendingOwner",
      "outputs": [
        {
          "internalType": "address",
          "name": "",
          "type": "address"
        }
      ],
      "payable": false,
      "stateMutability": "view",
      "type": "function"
    },
    {
      "constant": true,
      "inputs": [],
      "name": "registry",
      "outputs": [
        {
          "internalType": "contract GatewayRegistry",
          "name": "",
          "type": "address"
        }
      ],
      "payable": false,
      "stateMutability": "view",
      "type": "function"
    },
    {
      "constant": false,
      "inputs": [],
      "name": "renounceOwnership",
      "outputs": [],
      "payable": false,
      "stateMutability": "nonpayable",
      "type": "function"
    },
    {
      "constant": false,
      "inputs": [
        {
          "internalType": "address",
          "name": "newOwner",
          "type": "address"
        }
      ],
      "name": "transferOwnership",
      "outputs": [],
      "payable": false,
      "stateMutability": "nonpayable",
      "type": "function"
    }
  ],
  "bytecode": "0x60806040523480156200001157600080fd5b506040516200ec983803806200ec98833981810160405260408110156200003757600080fd5b8101908080519060200190929190805160405193929190846401000000008211156200006257600080fd5b838201915060208201858111156200007957600080fd5b82518660018202830111640100000000821117156200009757600080fd5b8083526020830192505050908051906020019080838360005b83811015620000cd578082015181840152602081019050620000b0565b50505050905090810190601f168015620000fb5780820380516001836020036101000a031916815260200191505b506040525050506200011833620001e660201b62000cf61760201c565b81606760006101000a81548173ffffffffffffffffffffffffffffffffffffffff021916908373ffffffffffffffffffffffffffffffffffffffff1602179055506040516200016790620004ed565b604051809103906000f08015801562000184573d6000803e3d6000fd5b50606860006101000a81548173ffffffffffffffffffffffffffffffffffffffff021916908373ffffffffffffffffffffffffffffffffffffffff1602179055508060699080519060200190620001dd929190620004fb565b505050620005aa565b600060019054906101000a900460ff16806200020e57506200020d6200030a60201b60201c565b5b806200022657506000809054906101000a900460ff16155b6200027d576040517f08c379a000000000000000000000000000000000000000000000000000000000815260040180806020018281038252602e8152602001806200ec6a602e913960400191505060405180910390fd5b60008060019054906101000a900460ff161590508015620002ce576001600060016101000a81548160ff02191690831515021790555060016000806101000a81548160ff0219169083151502179055505b620002e4826200032160201b620018df1760201c565b8015620003065760008060016101000a81548160ff0219169083151502179055505b5050565b6000803090506000813b9050600081149250505090565b600060019054906101000a900460ff1680620003495750620003486200030a60201b60201c565b5b806200036157506000809054906101000a900460ff16155b620003b8576040517f08c379a000000000000000000000000000000000000000000000000000000000815260040180806020018281038252602e8152602001806200ec6a602e913960400191505060405180910390fd5b60008060019054906101000a900460ff16159050801562000409576001600060016101000a81548160ff02191690831515021790555060016000806101000a81548160ff0219169083151502179055505b81603360006101000a81548173ffffffffffffffffffffffffffffffffffffffff021916908373ffffffffffffffffffffffffffffffffffffffff160217905550603360009054906101000a900473ffffffffffffffffffffffffffffffffffffffff1673ffffffffffffffffffffffffffffffffffffffff16600073ffffffffffffffffffffffffffffffffffffffff167f8be0079c531659141344cd1fd0a4f28419497f9722a3daafe3b4186f6b6457e060405160405180910390a38015620004e95760008060016101000a81548160ff0219169083151502179055505b5050565b613a52806200b21883390190565b828054600181600116156101000203166002900490600052602060002090601f016020900481019282601f106200053e57805160ff19168380011785556200056f565b828001600101855582156200056f579182015b828111156200056e57825182559160200191906001019062000551565b5b5090506200057e919062000582565b5090565b620005a791905b80821115620005a357600081600090555060010162000589565b5090565b90565b61ac5e80620005ba6000396000f3fe608060405234801561001057600080fd5b50600436106100f55760003560e01c80638da5cb5b11610097578063e30c397811610066578063e30c397814610456578063efa74f1f146104a0578063f2fde38b14610559578063f3bdd8631461059d576100f5565b80638da5cb5b1461035c5780638f32d59b146103a65780639340b21e146103c8578063c4d66de814610412576100f5565b80634e71e0c8116100d35780634e71e0c81461024557806364936b1e1461024f578063715018a6146103085780637b10399914610312576100f5565b80631b95e305146100fa5780631c93b03a1461017e578063238e5bc814610201575b600080fd5b61013c6004803603602081101561011057600080fd5b81019080803573ffffffffffffffffffffffffffffffffffffffff1690602001909291905050506106fc565b604051808273ffffffffffffffffffffffffffffffffffffffff1673ffffffffffffffffffffffffffffffffffffffff16815260200191505060405180910390f35b6101866107df565b6040518080602001828103825283818151815260200191508051906020019080838360005b838110156101c65780820151818401526020810190506101ab565b50505050905090810190601f1680156101f35780820380516001836020036101000a031916815260200191505b509250505060405180910390f35b6102436004803603602081101561021757600080fd5b81019080803573ffffffffffffffffffffffffffffffffffffffff16906020019092919050505061087d565b005b61024d610903565b005b6102c66004803603602081101561026557600080fd5b810190808035906020019064010000000081111561028257600080fd5b82018360208201111561029457600080fd5b803590602001918460018302840111640100000000831117156102b657600080fd5b9091929391929390505050610a02565b604051808273ffffffffffffffffffffffffffffffffffffffff1673ffffffffffffffffffffffffffffffffffffffff16815260200191505060405180910390f35b610310610ae6565b005b61031a610c21565b604051808273ffffffffffffffffffffffffffffffffffffffff1673ffffffffffffffffffffffffffffffffffffffff16815260200191505060405180910390f35b610364610c47565b604051808273ffffffffffffffffffffffffffffffffffffffff1673ffffffffffffffffffffffffffffffffffffffff16815260200191505060405180910390f35b6103ae610c71565b604051808215151515815260200191505060405180910390f35b6103d0610cd0565b604051808273ffffffffffffffffffffffffffffffffffffffff1673ffffffffffffffffffffffffffffffffffffffff16815260200191505060405180910390f35b6104546004803603602081101561042857600080fd5b81019080803573ffffffffffffffffffffffffffffffffffffffff169060200190929190505050610cf6565b005b61045e610dff565b604051808273ffffffffffffffffffffffffffffffffffffffff1673ffffffffffffffffffffffffffffffffffffffff16815260200191505060405180910390f35b610517600480360360208110156104b657600080fd5b81019080803590602001906401000000008111156104d357600080fd5b8201836020820111156104e557600080fd5b8035906020019184600183028401116401000000008311171561050757600080fd5b9091929391929390505050610e25565b604051808273ffffffffffffffffffffffffffffffffffffffff1673ffffffffffffffffffffffffffffffffffffffff16815260200191505060405180910390f35b61059b6004803603602081101561056f57600080fd5b81019080803573ffffffffffffffffffffffffffffffffffffffff169060200190929190505050610f09565b005b6106fa600480360360608110156105b357600080fd5b81019080803590602001906401000000008111156105d057600080fd5b8201836020820111156105e257600080fd5b8035906020019184600183028401116401000000008311171561060457600080fd5b91908080601f016020809104026020016040519081016040528093929190818152602001838380828437600081840152601f19601f8201169050808301925050505050505091929192908035906020019064010000000081111561066757600080fd5b82018360208201111561067957600080fd5b8035906020019184600183028401116401000000008311171561069b57600080fd5b91908080601f016020809104026020016040519081016040528093929190818152602001838380828437600081840152601f19601f820116905080830192505050505050509192919290803560ff1690602001909291905050506110ca565b005b6000606860009054906101000a900473ffffffffffffffffffffffffffffffffffffffff1673ffffffffffffffffffffffffffffffffffffffff16631b95e305836040518263ffffffff1660e01b8152600401808273ffffffffffffffffffffffffffffffffffffffff1673ffffffffffffffffffffffffffffffffffffffff16815260200191505060206040518083038186803b15801561079d57600080fd5b505afa1580156107b1573d6000803e3d6000fd5b505050506040513d60208110156107c757600080fd5b81019080805190602001909291905050509050919050565b60698054600181600116156101000203166002900480601f0160208091040260200160405190810160405280929190818152602001828054600181600116156101000203166002900480156108755780601f1061084a57610100808354040283529160200191610875565b820191906000526020600020905b81548152906001019060200180831161085857829003601f168201915b505050505081565b610885610c71565b6108f7576040517f08c379a00000000000000000000000000000000000000000000000000000000081526004018080602001828103825260208152602001807f4f776e61626c653a2063616c6c6572206973206e6f7420746865206f776e657281525060200191505060405180910390fd5b6109008161177a565b50565b606660009054906101000a900473ffffffffffffffffffffffffffffffffffffffff1673ffffffffffffffffffffffffffffffffffffffff166109446118c0565b73ffffffffffffffffffffffffffffffffffffffff16146109b0576040517f08c379a000000000000000000000000000000000000000000000000000000000815260040180806020018281038252602a81526020018061ac00602a913960400191505060405180910390fd5b6109db606660009054906101000a900473ffffffffffffffffffffffffffffffffffffffff1661177a565b606660006101000a81549073ffffffffffffffffffffffffffffffffffffffff0219169055565b6000606860009054906101000a900473ffffffffffffffffffffffffffffffffffffffff1673ffffffffffffffffffffffffffffffffffffffff166364936b1e84846040518363ffffffff1660e01b815260040180806020018281038252848482818152602001925080828437600081840152601f19601f820116905080830192505050935050505060206040518083038186803b158015610aa357600080fd5b505afa158015610ab7573d6000803e3d6000fd5b505050506040513d6020811015610acd57600080fd5b8101908080519060200190929190505050905092915050565b610aee610c71565b610b60576040517f08c379a00000000000000000000000000000000000000000000000000000000081526004018080602001828103825260208152602001807f4f776e61626c653a2063616c6c6572206973206e6f7420746865206f776e657281525060200191505060405180910390fd5b600073ffffffffffffffffffffffffffffffffffffffff16603360009054906101000a900473ffffffffffffffffffffffffffffffffffffffff1673ffffffffffffffffffffffffffffffffffffffff167f8be0079c531659141344cd1fd0a4f28419497f9722a3daafe3b4186f6b6457e060405160405180910390a36000603360006101000a81548173ffffffffffffffffffffffffffffffffffffffff021916908373ffffffffffffffffffffffffffffffffffffffff160217905550565b606860009054906101000a900473ffffffffffffffffffffffffffffffffffffffff1681565b6000603360009054906101000a900473ffffffffffffffffffffffffffffffffffffffff16905090565b6000603360009054906101000a900473ffffffffffffffffffffffffffffffffffffffff1673ffffffffffffffffffffffffffffffffffffffff16610cb46118c0565b73ffffffffffffffffffffffffffffffffffffffff1614905090565b606760009054906101000a900473ffffffffffffffffffffffffffffffffffffffff1681565b600060019054906101000a900460ff1680610d155750610d146118c8565b5b80610d2c57506000809054906101000a900460ff16155b610d81576040517f08c379a000000000000000000000000000000000000000000000000000000000815260040180806020018281038252602e81526020018061abd2602e913960400191505060405180910390fd5b60008060019054906101000a900460ff161590508015610dd1576001600060016101000a81548160ff02191690831515021790555060016000806101000a81548160ff0219169083151502179055505b610dda826118df565b8015610dfb5760008060016101000a81548160ff0219169083151502179055505b5050565b606660009054906101000a900473ffffffffffffffffffffffffffffffffffffffff1681565b6000606860009054906101000a900473ffffffffffffffffffffffffffffffffffffffff1673ffffffffffffffffffffffffffffffffffffffff1663efa74f1f84846040518363ffffffff1660e01b815260040180806020018281038252848482818152602001925080828437600081840152601f19601f820116905080830192505050935050505060206040518083038186803b158015610ec657600080fd5b505afa158015610eda573d6000803e3d6000fd5b505050506040513d6020811015610ef057600080fd5b8101908080519060200190929190505050905092915050565b610f11610c71565b610f83576040517f08c379a00000000000000000000000000000000000000000000000000000000081526004018080602001828103825260208152602001807f4f776e61626c653a2063616c6c6572206973206e6f7420746865206f776e657281525060200191505060405180910390fd5b610f8b610c47565b73ffffffffffffffffffffffffffffffffffffffff168173ffffffffffffffffffffffffffffffffffffffff16141580156110145750606660009054906101000a900473ffffffffffffffffffffffffffffffffffffffff1673ffffffffffffffffffffffffffffffffffffffff168173ffffffffffffffffffffffffffffffffffffffff1614155b611086576040517f08c379a000000000000000000000000000000000000000000000000000000000815260040180806020018281038252601c8152602001807f436c61696d61626c653a20696e76616c6964206e6577206f776e65720000000081525060200191505060405180910390fd5b80606660006101000a81548173ffffffffffffffffffffffffffffffffffffffff021916908373ffffffffffffffffffffffffffffffffffffffff16021790555050565b6110d2610c71565b611144576040517f08c379a00000000000000000000000000000000000000000000000000000000081526004018080602001828103825260208152602001807f4f776e61626c653a2063616c6c6572206973206e6f7420746865206f776e657281525060200191505060405180910390fd5b600060405161115290611a9d565b604051809103906000f08015801561116e573d6000803e3d6000fd5b509050600060405161117f90611aaa565b604051809103906000f08015801561119b573d6000803e3d6000fd5b5090508173ffffffffffffffffffffffffffffffffffffffff166353531e39600183670de0b6b3a76400008989896040518763ffffffff1660e01b8152600401808781526020018673ffffffffffffffffffffffffffffffffffffffff1673ffffffffffffffffffffffffffffffffffffffff1681526020018581526020018060200180602001806020018560ff1660ff168152602001848103845260018152602001807f3100000000000000000000000000000000000000000000000000000000000000815250602001848103835287818151815260200191508051906020019080838360005b8381101561129e578082015181840152602081019050611283565b50505050905090810190601f1680156112cb5780820380516001836020036101000a031916815260200191505b50848103825286818151815260200191508051906020019080838360005b838110156113045780820151818401526020810190506112e9565b50505050905090810190601f1680156113315780820380516001836020036101000a031916815260200191505b509950505050505050505050600060405180830381600087803b15801561135757600080fd5b505af115801561136b573d6000803e3d6000fd5b505050508073ffffffffffffffffffffffffffffffffffffffff1663a2999beb83611394610c47565b606760009054906101000a900473ffffffffffffffffffffffffffffffffffffffff16600f8060006040518763ffffffff1660e01b8152600401808773ffffffffffffffffffffffffffffffffffffffff1673ffffffffffffffffffffffffffffffffffffffff1681526020018673ffffffffffffffffffffffffffffffffffffffff1673ffffffffffffffffffffffffffffffffffffffff1681526020018573ffffffffffffffffffffffffffffffffffffffff1673ffffffffffffffffffffffffffffffffffffffff1681526020018461ffff1681526020018361ffff1681526020018281526020019650505050505050600060405180830381600087803b1580156114a157600080fd5b505af11580156114b5573d6000803e3d6000fd5b505050508073ffffffffffffffffffffffffffffffffffffffff16630d3afe4c8560696040516020018083805190602001908083835b6020831061150e57805182526020820191506020810190506020830392506114eb565b6001836020036101000a038019825116818451168082178552505050505050905001807f2f746f0000000000000000000000000000000000000000000000000000000000815250600301828054600181600116156101000203166002900480156115af5780601f1061158d5761010080835404028352918201916115af565b820191906000526020600020905b81548152906001019060200180831161159b575b505092505050604051602081830303815290604052805190602001206040518263ffffffff1660e01b815260040180828152602001915050600060405180830381600087803b15801561160157600080fd5b505af1158015611615573d6000803e3d6000fd5b50505050606860009054906101000a900473ffffffffffffffffffffffffffffffffffffffff1673ffffffffffffffffffffffffffffffffffffffff1663b3d0403e8584846040518463ffffffff1660e01b815260040180806020018473ffffffffffffffffffffffffffffffffffffffff1673ffffffffffffffffffffffffffffffffffffffff1681526020018373ffffffffffffffffffffffffffffffffffffffff1673ffffffffffffffffffffffffffffffffffffffff168152602001828103825285818151815260200191508051906020019080838360005b8381101561170d5780820151818401526020810190506116f2565b50505050905090810190601f16801561173a5780820380516001836020036101000a031916815260200191505b50945050505050600060405180830381600087803b15801561175b57600080fd5b505af115801561176f573d6000803e3d6000fd5b505050505050505050565b600073ffffffffffffffffffffffffffffffffffffffff168173ffffffffffffffffffffffffffffffffffffffff161415611800576040517f08c379a000000000000000000000000000000000000000000000000000000000815260040180806020018281038252602681526020018061abac6026913960400191505060405180910390fd5b8073ffffffffffffffffffffffffffffffffffffffff16603360009054906101000a900473ffffffffffffffffffffffffffffffffffffffff1673ffffffffffffffffffffffffffffffffffffffff167f8be0079c531659141344cd1fd0a4f28419497f9722a3daafe3b4186f6b6457e060405160405180910390a380603360006101000a81548173ffffffffffffffffffffffffffffffffffffffff021916908373ffffffffffffffffffffffffffffffffffffffff16021790555050565b600033905090565b6000803090506000813b9050600081149250505090565b600060019054906101000a900460ff16806118fe57506118fd6118c8565b5b8061191557506000809054906101000a900460ff16155b61196a576040517f08c379a000000000000000000000000000000000000000000000000000000000815260040180806020018281038252602e81526020018061abd2602e913960400191505060405180910390fd5b60008060019054906101000a900460ff1615905080156119ba576001600060016101000a81548160ff02191690831515021790555060016000806101000a81548160ff0219169083151502179055505b81603360006101000a81548173ffffffffffffffffffffffffffffffffffffffff021916908373ffffffffffffffffffffffffffffffffffffffff160217905550603360009054906101000a900473ffffffffffffffffffffffffffffffffffffffff1673ffffffffffffffffffffffffffffffffffffffff16600073ffffffffffffffffffffffffffffffffffffffff167f8be0079c531659141344cd1fd0a4f28419497f9722a3daafe3b4186f6b6457e060405160405180910390a38015611a995760008060016101000a81548160ff0219169083151502179055505b5050565b61467680611ab883390190565b614a7e8061612e8339019056fe6080604052614663806100136000396000f3fe608060405234801561001057600080fd5b50600436106102325760003560e01c8063715018a611610130578063a9059cbb116100b8578063dd62ed3e1161007c578063dd62ed3e14611075578063e30c3978146110ed578063eb438fc214611137578063f2fde38b14611179578063f65d901c146111bd57610232565b8063a9059cbb14610f31578063bd6d894d14610f97578063c4d66de814610fb5578063cd6dc68714610ff9578063db068e0e1461104757610232565b80638fcbaf0c116100ff5780638fcbaf0c14610d1257806395d89b4114610db85780639dc29fac14610e3b578063a173b2f614610e89578063a457c2d714610ecb57610232565b8063715018a614610c445780637ecebe0014610c4e5780638da5cb5b14610ca65780638f32d59b14610cf057610232565b8063313ce567116101be5780634e71e0c8116101825780634e71e0c81461073557806353531e391461073f57806354fd4d50146109695780635dca3452146109ec57806370a0823114610bec57610232565b8063313ce567146105e75780633644e5151461060b57806339509351146106295780633af9e6691461068f57806340c10f19146106e757610232565b806318160ddd1161020557806318160ddd146104c3578063238e5bc8146104e157806323b872dd1461052557806325e27ed8146105ab57806330adf81f146105c957610232565b806306fdde0314610237578063095ea7b3146102ba57806316114acd146103205780631624f6c614610364575b600080fd5b61023f611201565b6040518080602001828103825283818151815260200191508051906020019080838360005b8381101561027f578082015181840152602081019050610264565b50505050905090810190601f1680156102ac5780820380516001836020036101000a031916815260200191505b509250505060405180910390f35b610306600480360360408110156102d057600080fd5b81019080803573ffffffffffffffffffffffffffffffffffffffff169060200190929190803590602001909291905050506112a3565b604051808215151515815260200191505060405180910390f35b6103626004803603602081101561033657600080fd5b81019080803573ffffffffffffffffffffffffffffffffffffffff1690602001909291905050506112c1565b005b6104c16004803603606081101561037a57600080fd5b810190808035906020019064010000000081111561039757600080fd5b8201836020820111156103a957600080fd5b803590602001918460018302840111640100000000831117156103cb57600080fd5b91908080601f016020809104026020016040519081016040528093929190818152602001838380828437600081840152601f19601f8201169050808301925050505050505091929192908035906020019064010000000081111561042e57600080fd5b82018360208201111561044057600080fd5b8035906020019184600183028401116401000000008311171561046257600080fd5b91908080601f016020809104026020016040519081016040528093929190818152602001838380828437600081840152601f19601f820116905080830192505050505050509192919290803560ff169060200190929190505050611545565b005b6104cb611690565b6040518082815260200191505060405180910390f35b610523600480360360208110156104f757600080fd5b81019080803573ffffffffffffffffffffffffffffffffffffffff16906020019092919050505061169a565b005b6105916004803603606081101561053b57600080fd5b81019080803573ffffffffffffffffffffffffffffffffffffffff169060200190929190803573ffffffffffffffffffffffffffffffffffffffff16906020019092919080359060200190929190505050611720565b604051808215151515815260200191505060405180910390f35b6105b36117bb565b6040518082815260200191505060405180910390f35b6105d16117c7565b6040518082815260200191505060405180910390f35b6105ef6117ee565b604051808260ff1660ff16815260200191505060405180910390f35b610613611805565b6040518082815260200191505060405180910390f35b6106756004803603604081101561063f57600080fd5b81019080803573ffffffffffffffffffffffffffffffffffffffff1690602001909291908035906020019092919050505061180b565b604051808215151515815260200191505060405180910390f35b6106d1600480360360208110156106a557600080fd5b81019080803573ffffffffffffffffffffffffffffffffffffffff1690602001909291905050506118be565b6040518082815260200191505060405180910390f35b610733600480360360408110156106fd57600080fd5b81019080803573ffffffffffffffffffffffffffffffffffffffff169060200190929190803590602001909291905050506118d8565b005b61073d611960565b005b610967600480360360e081101561075557600080fd5b8101908080359060200190929190803573ffffffffffffffffffffffffffffffffffffffff16906020019092919080359060200190929190803590602001906401000000008111156107a657600080fd5b8201836020820111156107b857600080fd5b803590602001918460018302840111640100000000831117156107da57600080fd5b91908080601f016020809104026020016040519081016040528093929190818152602001838380828437600081840152601f19601f8201169050808301925050505050505091929192908035906020019064010000000081111561083d57600080fd5b82018360208201111561084f57600080fd5b8035906020019184600183028401116401000000008311171561087157600080fd5b91908080601f016020809104026020016040519081016040528093929190818152602001838380828437600081840152601f19601f820116905080830192505050505050509192919290803590602001906401000000008111156108d457600080fd5b8201836020820111156108e657600080fd5b8035906020019184600183028401116401000000008311171561090857600080fd5b91908080601f016020809104026020016040519081016040528093929190818152602001838380828437600081840152601f19601f820116905080830192505050505050509192919290803560ff169060200190929190505050611a5f565b005b610971611b99565b6040518080602001828103825283818151815260200191508051906020019080838360005b838110156109b1578082015181840152602081019050610996565b50505050905090810190601f1680156109de5780820380516001836020036101000a031916815260200191505b509250505060405180910390f35b610bea600480360360a0811015610a0257600080fd5b810190808035906020019092919080359060200190640100000000811115610a2957600080fd5b820183602082011115610a3b57600080fd5b80359060200191846001830284011164010000000083111715610a5d57600080fd5b91908080601f016020809104026020016040519081016040528093929190818152602001838380828437600081840152601f19601f82011690508083019250505050505050919291929080359060200190640100000000811115610ac057600080fd5b820183602082011115610ad257600080fd5b80359060200191846001830284011164010000000083111715610af457600080fd5b91908080601f016020809104026020016040519081016040528093929190818152602001838380828437600081840152601f19601f82011690508083019250505050505050919291929080359060200190640100000000811115610b5757600080fd5b820183602082011115610b6957600080fd5b80359060200191846001830284011164010000000083111715610b8b57600080fd5b91908080601f016020809104026020016040519081016040528093929190818152602001838380828437600081840152601f19601f820116905080830192505050505050509192919290803560ff169060200190929190505050611c37565b005b610c2e60048036036020811015610c0257600080fd5b81019080803573ffffffffffffffffffffffffffffffffffffffff169060200190929190505050611e65565b6040518082815260200191505060405180910390f35b610c4c611eae565b005b610c9060048036036020811015610c6457600080fd5b81019080803573ffffffffffffffffffffffffffffffffffffffff169060200190929190505050611fe9565b6040518082815260200191505060405180910390f35b610cae612001565b604051808273ffffffffffffffffffffffffffffffffffffffff1673ffffffffffffffffffffffffffffffffffffffff16815260200191505060405180910390f35b610cf861202b565b604051808215151515815260200191505060405180910390f35b610db66004803603610100811015610d2957600080fd5b81019080803573ffffffffffffffffffffffffffffffffffffffff169060200190929190803573ffffffffffffffffffffffffffffffffffffffff1690602001909291908035906020019092919080359060200190929190803515159060200190929190803560ff169060200190929190803590602001909291908035906020019092919050505061208a565b005b610dc06124b0565b6040518080602001828103825283818151815260200191508051906020019080838360005b83811015610e00578082015181840152602081019050610de5565b50505050905090810190601f168015610e2d5780820380516001836020036101000a031916815260200191505b509250505060405180910390f35b610e8760048036036040811015610e5157600080fd5b81019080803573ffffffffffffffffffffffffffffffffffffffff16906020019092919080359060200190929190505050612552565b005b610eb560048036036020811015610e9f57600080fd5b81019080803590602001909291905050506125da565b6040518082815260200191505060405180910390f35b610f1760048036036040811015610ee157600080fd5b81019080803573ffffffffffffffffffffffffffffffffffffffff16906020019092919080359060200190929190505050612612565b604051808215151515815260200191505060405180910390f35b610f7d60048036036040811015610f4757600080fd5b81019080803573ffffffffffffffffffffffffffffffffffffffff169060200190929190803590602001909291905050506126df565b604051808215151515815260200191505060405180910390f35b610f9f612778565b6040518082815260200191505060405180910390f35b610ff760048036036020811015610fcb57600080fd5b81019080803573ffffffffffffffffffffffffffffffffffffffff1690602001909291905050506127dd565b005b6110456004803603604081101561100f57600080fd5b81019080803573ffffffffffffffffffffffffffffffffffffffff169060200190929190803590602001909291905050506128e6565b005b6110736004803603602081101561105d57600080fd5b81019080803590602001909291905050506129f9565b005b6110d76004803603604081101561108b57600080fd5b81019080803573ffffffffffffffffffffffffffffffffffffffff169060200190929190803573ffffffffffffffffffffffffffffffffffffffff169060200190929190505050612a7f565b6040518082815260200191505060405180910390f35b6110f5612b06565b604051808273ffffffffffffffffffffffffffffffffffffffff1673ffffffffffffffffffffffffffffffffffffffff16815260200191505060405180910390f35b6111636004803603602081101561114d57600080fd5b8101908080359060200190929190505050612b2c565b6040518082815260200191505060405180910390f35b6111bb6004803603602081101561118f57600080fd5b81019080803573ffffffffffffffffffffffffffffffffffffffff169060200190929190505050612b64565b005b6111ff600480360360208110156111d357600080fd5b81019080803573ffffffffffffffffffffffffffffffffffffffff169060200190929190505050612d25565b005b6060609b8054600181600116156101000203166002900480601f0160208091040260200160405190810160405280929190818152602001828054600181600116156101000203166002900480156112995780601f1061126e57610100808354040283529160200191611299565b820191906000526020600020905b81548152906001019060200180831161127c57829003601f168201915b5050505050905090565b60006112b76112b0612dfa565b8484612e02565b6001905092915050565b6112c961202b565b61133b576040517f08c379a00000000000000000000000000000000000000000000000000000000081526004018080602001828103825260208152602001807f4f776e61626c653a2063616c6c6572206973206e6f7420746865206f776e657281525060200191505060405180910390fd5b60d560008273ffffffffffffffffffffffffffffffffffffffff1673ffffffffffffffffffffffffffffffffffffffff16815260200190815260200160002060009054906101000a900460ff16156113de576040517f08c379a000000000000000000000000000000000000000000000000000000000815260040180806020018281038252602a81526020018061436a602a913960400191505060405180910390fd5b600073ffffffffffffffffffffffffffffffffffffffff168173ffffffffffffffffffffffffffffffffffffffff16141561145f573373ffffffffffffffffffffffffffffffffffffffff166108fc479081150290604051600060405180830381858888f19350505050158015611459573d6000803e3d6000fd5b50611542565b611541338273ffffffffffffffffffffffffffffffffffffffff166370a08231306040518263ffffffff1660e01b8152600401808273ffffffffffffffffffffffffffffffffffffffff1673ffffffffffffffffffffffffffffffffffffffff16815260200191505060206040518083038186803b1580156114e057600080fd5b505afa1580156114f4573d6000803e3d6000fd5b505050506040513d602081101561150a57600080fd5b81019080805190602001909291905050508373ffffffffffffffffffffffffffffffffffffffff16612ff99092919063ffffffff16565b5b50565b600060019054906101000a900460ff168061156457506115636130ca565b5b8061157b57506000809054906101000a900460ff16155b6115d0576040517f08c379a000000000000000000000000000000000000000000000000000000000815260040180806020018281038252602e8152602001806144a2602e913960400191505060405180910390fd5b60008060019054906101000a900460ff161590508015611620576001600060016101000a81548160ff02191690831515021790555060016000806101000a81548160ff0219169083151502179055505b83609b9080519060200190611636929190614237565b5082609c908051906020019061164d929190614237565b5081609d60006101000a81548160ff021916908360ff160217905550801561168a5760008060016101000a81548160ff0219169083151502179055505b50505050565b6000606854905090565b6116a261202b565b611714576040517f08c379a00000000000000000000000000000000000000000000000000000000081526004018080602001828103825260208152602001807f4f776e61626c653a2063616c6c6572206973206e6f7420746865206f776e657281525060200191505060405180910390fd5b61171d816130e1565b50565b60003073ffffffffffffffffffffffffffffffffffffffff168373ffffffffffffffffffffffffffffffffffffffff1614156117a7576040517f08c379a00000000000000000000000000000000000000000000000000000000081526004018080602001828103825260298152602001806145406029913960400191505060405180910390fd5b6117b2848484613227565b90509392505050565b670de0b6b3a764000081565b7fea2aa0a1be11a07ed86d755c93467f4f82362b452371d1ba94d1715123511acb60001b81565b6000609d60009054906101000a900460ff16905090565b60d35481565b60006118b4611818612dfa565b846118af8560676000611829612dfa565b73ffffffffffffffffffffffffffffffffffffffff1673ffffffffffffffffffffffffffffffffffffffff16815260200190815260200160002060008973ffffffffffffffffffffffffffffffffffffffff1673ffffffffffffffffffffffffffffffffffffffff1681526020019081526020016000205461330090919063ffffffff16565b612e02565b6001905092915050565b60006118d16118cc83611e65565b612b2c565b9050919050565b6118e061202b565b611952576040517f08c379a00000000000000000000000000000000000000000000000000000000081526004018080602001828103825260208152602001807f4f776e61626c653a2063616c6c6572206973206e6f7420746865206f776e657281525060200191505060405180910390fd5b61195c8282613388565b5050565b60d460009054906101000a900473ffffffffffffffffffffffffffffffffffffffff1673ffffffffffffffffffffffffffffffffffffffff166119a1612dfa565b73ffffffffffffffffffffffffffffffffffffffff1614611a0d576040517f08c379a000000000000000000000000000000000000000000000000000000000815260040180806020018281038252602a8152602001806144f1602a913960400191505060405180910390fd5b611a3860d460009054906101000a900473ffffffffffffffffffffffffffffffffffffffff166130e1565b60d460006101000a81549073ffffffffffffffffffffffffffffffffffffffff0219169055565b600060019054906101000a900460ff1680611a7e5750611a7d6130ca565b5b80611a9557506000809054906101000a900460ff16155b611aea576040517f08c379a000000000000000000000000000000000000000000000000000000000815260040180806020018281038252602e8152602001806144a2602e913960400191505060405180910390fd5b60008060019054906101000a900460ff161590508015611b3a576001600060016101000a81548160ff02191690831515021790555060016000806101000a81548160ff0219169083151502179055505b611b45848484611545565b611b4f87876128e6565b611b5c8886868686611c37565b611b6587613545565b611b6e876127dd565b8015611b8f5760008060016101000a81548160ff0219169083151502179055505b5050505050505050565b60d28054600181600116156101000203166002900480601f016020809104026020016040519081016040528092919081815260200182805460018160011615610100020316600290048015611c2f5780601f10611c0457610100808354040283529160200191611c2f565b820191906000526020600020905b815481529060010190602001808311611c1257829003601f168201915b505050505081565b600060019054906101000a900460ff1680611c565750611c556130ca565b5b80611c6d57506000809054906101000a900460ff16155b611cc2576040517f08c379a000000000000000000000000000000000000000000000000000000000815260040180806020018281038252602e8152602001806144a2602e913960400191505060405180910390fd5b60008060019054906101000a900460ff161590508015611d12576001600060016101000a81548160ff02191690831515021790555060016000806101000a81548160ff0219169083151502179055505b611d1d848484611545565b8460d29080519060200190611d33929190614237565b5060405180806144076052913960520190506040518091039020611d55611201565b8051906020012060d26040518082805460018160011615610100020316600290048015611db95780601f10611d97576101008083540402835291820191611db9565b820191906000526020600020905b815481529060010190602001808311611da5575b505091505060405180910390208830604051602001808681526020018581526020018481526020018381526020018273ffffffffffffffffffffffffffffffffffffffff1673ffffffffffffffffffffffffffffffffffffffff168152602001955050505050506040516020818303038152906040528051906020012060d3819055508015611e5d5760008060016101000a81548160ff0219169083151502179055505b505050505050565b6000606660008373ffffffffffffffffffffffffffffffffffffffff1673ffffffffffffffffffffffffffffffffffffffff168152602001908152602001600020549050919050565b611eb661202b565b611f28576040517f08c379a00000000000000000000000000000000000000000000000000000000081526004018080602001828103825260208152602001807f4f776e61626c653a2063616c6c6572206973206e6f7420746865206f776e657281525060200191505060405180910390fd5b600073ffffffffffffffffffffffffffffffffffffffff16603360009054906101000a900473ffffffffffffffffffffffffffffffffffffffff1673ffffffffffffffffffffffffffffffffffffffff167f8be0079c531659141344cd1fd0a4f28419497f9722a3daafe3b4186f6b6457e060405160405180910390a36000603360006101000a81548173ffffffffffffffffffffffffffffffffffffffff021916908373ffffffffffffffffffffffffffffffffffffffff160217905550565b60d16020528060005260406000206000915090505481565b6000603360009054906101000a900473ffffffffffffffffffffffffffffffffffffffff16905090565b6000603360009054906101000a900473ffffffffffffffffffffffffffffffffffffffff1673ffffffffffffffffffffffffffffffffffffffff1661206e612dfa565b73ffffffffffffffffffffffffffffffffffffffff1614905090565b600060d3547fea2aa0a1be11a07ed86d755c93467f4f82362b452371d1ba94d1715123511acb60001b8a8a8a8a8a604051602001808781526020018673ffffffffffffffffffffffffffffffffffffffff1673ffffffffffffffffffffffffffffffffffffffff1681526020018573ffffffffffffffffffffffffffffffffffffffff1673ffffffffffffffffffffffffffffffffffffffff1681526020018481526020018381526020018215151515815260200196505050505050506040516020818303038152906040528051906020012060405160200180807f190100000000000000000000000000000000000000000000000000000000000081525060020183815260200182815260200192505050604051602081830303815290604052805190602001209050600073ffffffffffffffffffffffffffffffffffffffff168973ffffffffffffffffffffffffffffffffffffffff16141561223a576040517f08c379a00000000000000000000000000000000000000000000000000000000081526004018080602001828103825260268152602001806146096026913960400191505060405180910390fd5b60018185858560405160008152602001604052604051808581526020018460ff1660ff1681526020018381526020018281526020019450505050506020604051602081039080840390855afa158015612297573d6000803e3d6000fd5b5050506020604051035173ffffffffffffffffffffffffffffffffffffffff168973ffffffffffffffffffffffffffffffffffffffff1614612341576040517f08c379a00000000000000000000000000000000000000000000000000000000081526004018080602001828103825260208152602001807f455243323057697468526174653a20696e76616c6964207369676e617475726581525060200191505060405180910390fd5b60008614806123505750854211155b6123a5576040517f08c379a00000000000000000000000000000000000000000000000000000000081526004018080602001828103825260218152602001806143e66021913960400191505060405180910390fd5b60d160008a73ffffffffffffffffffffffffffffffffffffffff1673ffffffffffffffffffffffffffffffffffffffff1681526020019081526020016000206000815480929190600101919050558714612467576040517f08c379a000000000000000000000000000000000000000000000000000000000815260040180806020018281038252601c8152602001807f455243323057697468526174653a20696e76616c6964206e6f6e63650000000081525060200191505060405180910390fd5b600085612475576000612497565b7fffffffffffffffffffffffffffffffffffffffffffffffffffffffffffffffff5b90506124a48a8a83612e02565b50505050505050505050565b6060609c8054600181600116156101000203166002900480601f0160208091040260200160405190810160405280929190818152602001828054600181600116156101000203166002900480156125485780601f1061251d57610100808354040283529160200191612548565b820191906000526020600020905b81548152906001019060200180831161252b57829003601f168201915b5050505050905090565b61255a61202b565b6125cc576040517f08c379a00000000000000000000000000000000000000000000000000000000081526004018080602001828103825260208152602001807f4f776e61626c653a2063616c6c6572206973206e6f7420746865206f776e657281525060200191505060405180910390fd5b6125d6828261364e565b5050565b600061260b60d0546125fd670de0b6b3a76400008561380890919063ffffffff16565b61388e90919063ffffffff16565b9050919050565b60006126d561261f612dfa565b846126d0856040518060600160405280602581526020016145e46025913960676000612649612dfa565b73ffffffffffffffffffffffffffffffffffffffff1673ffffffffffffffffffffffffffffffffffffffff16815260200190815260200160002060008a73ffffffffffffffffffffffffffffffffffffffff1673ffffffffffffffffffffffffffffffffffffffff168152602001908152602001600020546138d89092919063ffffffff16565b612e02565b6001905092915050565b60003073ffffffffffffffffffffffffffffffffffffffff168373ffffffffffffffffffffffffffffffffffffffff161415612766576040517f08c379a00000000000000000000000000000000000000000000000000000000081526004018080602001828103825260298152602001806145406029913960400191505060405180910390fd5b6127708383613998565b905092915050565b60008060d05414156127d5576040517f08c379a000000000000000000000000000000000000000000000000000000000815260040180806020018281038252602c815260200180614394602c913960400191505060405180910390fd5b60d054905090565b600060019054906101000a900460ff16806127fc57506127fb6130ca565b5b8061281357506000809054906101000a900460ff16155b612868576040517f08c379a000000000000000000000000000000000000000000000000000000000815260040180806020018281038252602e8152602001806144a2602e913960400191505060405180910390fd5b60008060019054906101000a900460ff1615905080156128b8576001600060016101000a81548160ff02191690831515021790555060016000806101000a81548160ff0219169083151502179055505b6128c182613545565b80156128e25760008060016101000a81548160ff0219169083151502179055505b5050565b600060019054906101000a900460ff168061290557506129046130ca565b5b8061291c57506000809054906101000a900460ff16155b612971576040517f08c379a000000000000000000000000000000000000000000000000000000000815260040180806020018281038252602e8152602001806144a2602e913960400191505060405180910390fd5b60008060019054906101000a900460ff1615905080156129c1576001600060016101000a81548160ff02191690831515021790555060016000806101000a81548160ff0219169083151502179055505b6129ca836139b6565b6129d382613b74565b80156129f45760008060016101000a81548160ff0219169083151502179055505b505050565b612a0161202b565b612a73576040517f08c379a00000000000000000000000000000000000000000000000000000000081526004018080602001828103825260208152602001807f4f776e61626c653a2063616c6c6572206973206e6f7420746865206f776e657281525060200191505060405180910390fd5b612a7c81613b74565b50565b6000606760008473ffffffffffffffffffffffffffffffffffffffff1673ffffffffffffffffffffffffffffffffffffffff16815260200190815260200160002060008373ffffffffffffffffffffffffffffffffffffffff1673ffffffffffffffffffffffffffffffffffffffff16815260200190815260200160002054905092915050565b60d460009054906101000a900473ffffffffffffffffffffffffffffffffffffffff1681565b6000612b5d670de0b6b3a7640000612b4f60d0548561380890919063ffffffff16565b61388e90919063ffffffff16565b9050919050565b612b6c61202b565b612bde576040517f08c379a00000000000000000000000000000000000000000000000000000000081526004018080602001828103825260208152602001807f4f776e61626c653a2063616c6c6572206973206e6f7420746865206f776e657281525060200191505060405180910390fd5b612be6612001565b73ffffffffffffffffffffffffffffffffffffffff168173ffffffffffffffffffffffffffffffffffffffff1614158015612c6f575060d460009054906101000a900473ffffffffffffffffffffffffffffffffffffffff1673ffffffffffffffffffffffffffffffffffffffff168173ffffffffffffffffffffffffffffffffffffffff1614155b612ce1576040517f08c379a000000000000000000000000000000000000000000000000000000000815260040180806020018281038252601c8152602001807f436c61696d61626c653a20696e76616c6964206e6577206f776e65720000000081525060200191505060405180910390fd5b8060d460006101000a81548173ffffffffffffffffffffffffffffffffffffffff021916908373ffffffffffffffffffffffffffffffffffffffff16021790555050565b612d2d61202b565b612d9f576040517f08c379a00000000000000000000000000000000000000000000000000000000081526004018080602001828103825260208152602001807f4f776e61626c653a2063616c6c6572206973206e6f7420746865206f776e657281525060200191505060405180910390fd5b600160d560008373ffffffffffffffffffffffffffffffffffffffff1673ffffffffffffffffffffffffffffffffffffffff16815260200190815260200160002060006101000a81548160ff02191690831515021790555050565b600033905090565b600073ffffffffffffffffffffffffffffffffffffffff168373ffffffffffffffffffffffffffffffffffffffff161415612e88576040517f08c379a00000000000000000000000000000000000000000000000000000000081526004018080602001828103825260248152602001806145696024913960400191505060405180910390fd5b600073ffffffffffffffffffffffffffffffffffffffff168273ffffffffffffffffffffffffffffffffffffffff161415612f0e576040517f08c379a00000000000000000000000000000000000000000000000000000000081526004018080602001828103825260228152602001806143486022913960400191505060405180910390fd5b80606760008573ffffffffffffffffffffffffffffffffffffffff1673ffffffffffffffffffffffffffffffffffffffff16815260200190815260200160002060008473ffffffffffffffffffffffffffffffffffffffff1673ffffffffffffffffffffffffffffffffffffffff168152602001908152602001600020819055508173ffffffffffffffffffffffffffffffffffffffff168373ffffffffffffffffffffffffffffffffffffffff167f8c5be1e5ebec7d5bd14f71427d1e84f3dd0314c0f7b2291e5b200ac8c7c3b925836040518082815260200191505060405180910390a3505050565b6130c5838473ffffffffffffffffffffffffffffffffffffffff1663a9059cbb905060e01b8484604051602401808373ffffffffffffffffffffffffffffffffffffffff1673ffffffffffffffffffffffffffffffffffffffff16815260200182815260200192505050604051602081830303815290604052907bffffffffffffffffffffffffffffffffffffffffffffffffffffffff19166020820180517bffffffffffffffffffffffffffffffffffffffffffffffffffffffff8381831617835250505050613bd7565b505050565b6000803090506000813b9050600081149250505090565b600073ffffffffffffffffffffffffffffffffffffffff168173ffffffffffffffffffffffffffffffffffffffff161415613167576040517f08c379a00000000000000000000000000000000000000000000000000000000081526004018080602001828103825260268152602001806143226026913960400191505060405180910390fd5b8073ffffffffffffffffffffffffffffffffffffffff16603360009054906101000a900473ffffffffffffffffffffffffffffffffffffffff1673ffffffffffffffffffffffffffffffffffffffff167f8be0079c531659141344cd1fd0a4f28419497f9722a3daafe3b4186f6b6457e060405160405180910390a380603360006101000a81548173ffffffffffffffffffffffffffffffffffffffff021916908373ffffffffffffffffffffffffffffffffffffffff16021790555050565b6000613234848484613e22565b6132f584613240612dfa565b6132f08560405180606001604052806028815260200161447a60289139606760008b73ffffffffffffffffffffffffffffffffffffffff1673ffffffffffffffffffffffffffffffffffffffff16815260200190815260200160002060006132a6612dfa565b73ffffffffffffffffffffffffffffffffffffffff1673ffffffffffffffffffffffffffffffffffffffff168152602001908152602001600020546138d89092919063ffffffff16565b612e02565b600190509392505050565b60008082840190508381101561337e576040517f08c379a000000000000000000000000000000000000000000000000000000000815260040180806020018281038252601b8152602001807f536166654d6174683a206164646974696f6e206f766572666c6f77000000000081525060200191505060405180910390fd5b8091505092915050565b600073ffffffffffffffffffffffffffffffffffffffff168273ffffffffffffffffffffffffffffffffffffffff16141561342b576040517f08c379a000000000000000000000000000000000000000000000000000000000815260040180806020018281038252601f8152602001807f45524332303a206d696e7420746f20746865207a65726f20616464726573730081525060200191505060405180910390fd5b6134408160685461330090919063ffffffff16565b60688190555061349881606660008573ffffffffffffffffffffffffffffffffffffffff1673ffffffffffffffffffffffffffffffffffffffff1681526020019081526020016000205461330090919063ffffffff16565b606660008473ffffffffffffffffffffffffffffffffffffffff1673ffffffffffffffffffffffffffffffffffffffff168152602001908152602001600020819055508173ffffffffffffffffffffffffffffffffffffffff16600073ffffffffffffffffffffffffffffffffffffffff167fddf252ad1be2c89b69c2b068fc378daa952ba7f163c4a11628f55a4df523b3ef836040518082815260200191505060405180910390a35050565b600060019054906101000a900460ff168061356457506135636130ca565b5b8061357b57506000809054906101000a900460ff16155b6135d0576040517f08c379a000000000000000000000000000000000000000000000000000000000815260040180806020018281038252602e8152602001806144a2602e913960400191505060405180910390fd5b60008060019054906101000a900460ff161590508015613620576001600060016101000a81548160ff02191690831515021790555060016000806101000a81548160ff0219169083151502179055505b613629826139b6565b801561364a5760008060016101000a81548160ff0219169083151502179055505b5050565b600073ffffffffffffffffffffffffffffffffffffffff168273ffffffffffffffffffffffffffffffffffffffff1614156136d4576040517f08c379a00000000000000000000000000000000000000000000000000000000081526004018080602001828103825260218152602001806144d06021913960400191505060405180910390fd5b6137408160405180606001604052806022815260200161430060229139606660008673ffffffffffffffffffffffffffffffffffffffff1673ffffffffffffffffffffffffffffffffffffffff168152602001908152602001600020546138d89092919063ffffffff16565b606660008473ffffffffffffffffffffffffffffffffffffffff1673ffffffffffffffffffffffffffffffffffffffff16815260200190815260200160002081905550613798816068546140dc90919063ffffffff16565b606881905550600073ffffffffffffffffffffffffffffffffffffffff168273ffffffffffffffffffffffffffffffffffffffff167fddf252ad1be2c89b69c2b068fc378daa952ba7f163c4a11628f55a4df523b3ef836040518082815260200191505060405180910390a35050565b60008083141561381b5760009050613888565b600082840290508284828161382c57fe5b0414613883576040517f08c379a00000000000000000000000000000000000000000000000000000000081526004018080602001828103825260218152602001806144596021913960400191505060405180910390fd5b809150505b92915050565b60006138d083836040518060400160405280601a81526020017f536166654d6174683a206469766973696f6e206279207a65726f000000000000815250614126565b905092915050565b6000838311158290613985576040517f08c379a00000000000000000000000000000000000000000000000000000000081526004018080602001828103825283818151815260200191508051906020019080838360005b8381101561394a57808201518184015260208101905061392f565b50505050905090810190601f1680156139775780820380516001836020036101000a031916815260200191505b509250505060405180910390fd5b5060008385039050809150509392505050565b60006139ac6139a5612dfa565b8484613e22565b6001905092915050565b600060019054906101000a900460ff16806139d557506139d46130ca565b5b806139ec57506000809054906101000a900460ff16155b613a41576040517f08c379a000000000000000000000000000000000000000000000000000000000815260040180806020018281038252602e8152602001806144a2602e913960400191505060405180910390fd5b60008060019054906101000a900460ff161590508015613a91576001600060016101000a81548160ff02191690831515021790555060016000806101000a81548160ff0219169083151502179055505b81603360006101000a81548173ffffffffffffffffffffffffffffffffffffffff021916908373ffffffffffffffffffffffffffffffffffffffff160217905550603360009054906101000a900473ffffffffffffffffffffffffffffffffffffffff1673ffffffffffffffffffffffffffffffffffffffff16600073ffffffffffffffffffffffffffffffffffffffff167f8be0079c531659141344cd1fd0a4f28419497f9722a3daafe3b4186f6b6457e060405160405180910390a38015613b705760008060016101000a81548160ff0219169083151502179055505b5050565b60008111613bcd576040517f08c379a000000000000000000000000000000000000000000000000000000000815260040180806020018281038252602d81526020018061458d602d913960400191505060405180910390fd5b8060d08190555050565b613bf68273ffffffffffffffffffffffffffffffffffffffff166141ec565b613c68576040517f08c379a000000000000000000000000000000000000000000000000000000000815260040180806020018281038252601f8152602001807f5361666545524332303a2063616c6c20746f206e6f6e2d636f6e74726163740081525060200191505060405180910390fd5b600060608373ffffffffffffffffffffffffffffffffffffffff16836040518082805190602001908083835b60208310613cb75780518252602082019150602081019050602083039250613c94565b6001836020036101000a0380198251168184511680821785525050505050509050019150506000604051808303816000865af19150503d8060008114613d19576040519150601f19603f3d011682016040523d82523d6000602084013e613d1e565b606091505b509150915081613d96576040517f08c379a00000000000000000000000000000000000000000000000000000000081526004018080602001828103825260208152602001807f5361666545524332303a206c6f772d6c6576656c2063616c6c206661696c656481525060200191505060405180910390fd5b600081511115613e1c57808060200190516020811015613db557600080fd5b8101908080519060200190929190505050613e1b576040517f08c379a000000000000000000000000000000000000000000000000000000000815260040180806020018281038252602a8152602001806145ba602a913960400191505060405180910390fd5b5b50505050565b600073ffffffffffffffffffffffffffffffffffffffff168373ffffffffffffffffffffffffffffffffffffffff161415613ea8576040517f08c379a000000000000000000000000000000000000000000000000000000000815260040180806020018281038252602581526020018061451b6025913960400191505060405180910390fd5b600073ffffffffffffffffffffffffffffffffffffffff168273ffffffffffffffffffffffffffffffffffffffff161415613f2e576040517f08c379a00000000000000000000000000000000000000000000000000000000081526004018080602001828103825260238152602001806142dd6023913960400191505060405180910390fd5b613f9a816040518060600160405280602681526020016143c060269139606660008773ffffffffffffffffffffffffffffffffffffffff1673ffffffffffffffffffffffffffffffffffffffff168152602001908152602001600020546138d89092919063ffffffff16565b606660008573ffffffffffffffffffffffffffffffffffffffff1673ffffffffffffffffffffffffffffffffffffffff1681526020019081526020016000208190555061402f81606660008573ffffffffffffffffffffffffffffffffffffffff1673ffffffffffffffffffffffffffffffffffffffff1681526020019081526020016000205461330090919063ffffffff16565b606660008473ffffffffffffffffffffffffffffffffffffffff1673ffffffffffffffffffffffffffffffffffffffff168152602001908152602001600020819055508173ffffffffffffffffffffffffffffffffffffffff168373ffffffffffffffffffffffffffffffffffffffff167fddf252ad1be2c89b69c2b068fc378daa952ba7f163c4a11628f55a4df523b3ef836040518082815260200191505060405180910390a3505050565b600061411e83836040518060400160405280601e81526020017f536166654d6174683a207375627472616374696f6e206f766572666c6f7700008152506138d8565b905092915050565b600080831182906141d2576040517f08c379a00000000000000000000000000000000000000000000000000000000081526004018080602001828103825283818151815260200191508051906020019080838360005b8381101561419757808201518184015260208101905061417c565b50505050905090810190601f1680156141c45780820380516001836020036101000a031916815260200191505b509250505060405180910390fd5b5060008385816141de57fe5b049050809150509392505050565b60008060007fc5d2460186f7233c927e7db2dcc703c0e500b653ca82273b7bfad8045d85a47060001b9050833f915080821415801561422e57506000801b8214155b92505050919050565b828054600181600116156101000203166002900490600052602060002090601f016020900481019282601f1061427857805160ff19168380011785556142a6565b828001600101855582156142a6579182015b828111156142a557825182559160200191906001019061428a565b5b5090506142b391906142b7565b5090565b6142d991905b808211156142d55760008160009055506001016142bd565b5090565b9056fe45524332303a207472616e7366657220746f20746865207a65726f206164647265737345524332303a206275726e20616d6f756e7420657863656564732062616c616e63654f776e61626c653a206e6577206f776e657220697320746865207a65726f206164647265737345524332303a20617070726f766520746f20746865207a65726f206164647265737343616e5265636c61696d546f6b656e733a20746f6b656e206973206e6f74207265636f76657261626c65455243323057697468526174653a207261746520686173206e6f74206265656e20696e697469616c697a656445524332303a207472616e7366657220616d6f756e7420657863656564732062616c616e6365455243323057697468526174653a207065726d6974206861732065787069726564454950373132446f6d61696e28737472696e67206e616d652c737472696e672076657273696f6e2c75696e7432353620636861696e49642c6164647265737320766572696679696e67436f6e747261637429536166654d6174683a206d756c7469706c69636174696f6e206f766572666c6f7745524332303a207472616e7366657220616d6f756e74206578636565647320616c6c6f77616e6365436f6e747261637420696e7374616e63652068617320616c7265616479206265656e20696e697469616c697a656445524332303a206275726e2066726f6d20746865207a65726f2061646472657373436c61696d61626c653a2063616c6c6572206973206e6f74207468652070656e64696e67206f776e657245524332303a207472616e736665722066726f6d20746865207a65726f206164647265737352656e45524332303a2063616e2774207472616e7366657220746f20746f6b656e206164647265737345524332303a20617070726f76652066726f6d20746865207a65726f2061646472657373455243323057697468526174653a2072617465206d7573742062652067726561746572207468616e207a65726f5361666545524332303a204552433230206f7065726174696f6e20646964206e6f74207375636365656445524332303a2064656372656173656420616c6c6f77616e63652062656c6f77207a65726f455243323057697468526174653a2061646472657373206d757374206e6f7420626520307830a265627a7a723158207fc4a89a140ebf8472358cec387f2d5184a3edfa639106c2114d027dfc11240e64736f6c6343000511003260806040526000606d55614a66806100186000396000f3fe608060405234801561001057600080fd5b50600436106102115760003560e01c80635cc6610611610125578063c91441ca116100ad578063f2fde38b1161007c578063f2fde38b14610c62578063f3d2350e14610ca6578063f65d901c14610ce6578063fc0c546a14610d2a578063fce589d814610d7457610211565b8063c91441ca14610a81578063daca6f7814610af7578063e30c397814610bd4578063f160d36914610c1e57610211565b80639340b21e116100f45780639340b21e1461090d57806394c238ac14610957578063a2999beb14610975578063aa4df9ad14610a1f578063c4d66de814610a3d57610211565b80635cc6610614610865578063715018a6146108975780638da5cb5b146108a15780638f32d59b146108eb57610211565b806329762976116101a8578063469048401161017757806346904840146107235780634e71e0c81461076d5780635219a5661461077757806352ad0d5e146107ed57806359c9176c1461083357610211565b806329762976146104715780632eb3f49b1461048f57806338463cff1461061c5780633a521b8d146106f557610211565b8063159ab14d116101e4578063159ab14d146102b857806316114acd146103a557806321e6b53d146103e9578063238e5bc81461042d57610211565b80630130a33b146102165780630d3afe4c1461025a57806310731a651461028857806313966db514610292575b600080fd5b6102586004803603602081101561022c57600080fd5b81019080803573ffffffffffffffffffffffffffffffffffffffff169060200190929190505050610d9a565b005b6102866004803603602081101561027057600080fd5b8101908080359060200190929190505050610fac565b005b610290611030565b005b61029a6110b4565b604051808261ffff1661ffff16815260200191505060405180910390f35b61038f600480360360808110156102ce57600080fd5b810190808035906020019092919080359060200190929190803590602001909291908035906020019064010000000081111561030957600080fd5b82018360208201111561031b57600080fd5b8035906020019184600183028401116401000000008311171561033d57600080fd5b91908080601f016020809104026020016040519081016040528093929190818152602001838380828437600081840152601f19601f8201169050808301925050505050505091929192905050506110c8565b6040518082815260200191505060405180910390f35b6103e7600480360360208110156103bb57600080fd5b81019080803573ffffffffffffffffffffffffffffffffffffffff1690602001909291905050506117ac565b005b61042b600480360360208110156103ff57600080fd5b81019080803573ffffffffffffffffffffffffffffffffffffffff169060200190929190505050611a30565b005b61046f6004803603602081101561044357600080fd5b81019080803573ffffffffffffffffffffffffffffffffffffffff169060200190929190505050611bc6565b005b610479611c4c565b6040518082815260200191505060405180910390f35b6104bb600480360360208110156104a557600080fd5b8101908080359060200190929190505050611c52565b60405180868152602001806020018581526020018060200180602001848103845288818151815260200191508051906020019080838360005b8381101561050f5780820151818401526020810190506104f4565b50505050905090810190601f16801561053c5780820380516001836020036101000a031916815260200191505b50848103835286818151815260200191508051906020019080838360005b8381101561057557808201518184015260208101905061055a565b50505050905090810190601f1680156105a25780820380516001836020036101000a031916815260200191505b50848103825285818151815260200191508051906020019080838360005b838110156105db5780820151818401526020810190506105c0565b50505050905090810190601f1680156106085780820380516001836020036101000a031916815260200191505b509850505050505050505060405180910390f35b6106df6004803603604081101561063257600080fd5b810190808035906020019064010000000081111561064f57600080fd5b82018360208201111561066157600080fd5b8035906020019184600183028401116401000000008311171561068357600080fd5b91908080601f016020809104026020016040519081016040528093929190818152602001838380828437600081840152601f19601f82011690508083019250505050505050919291929080359060200190929190505050611f2e565b6040518082815260200191505060405180910390f35b6107216004803603602081101561070b57600080fd5b81019080803590602001909291905050506124cf565b005b61072b612553565b604051808273ffffffffffffffffffffffffffffffffffffffff1673ffffffffffffffffffffffffffffffffffffffff16815260200191505060405180910390f35b610775612579565b005b6107d76004803603608081101561078d57600080fd5b810190808035906020019092919080359060200190929190803573ffffffffffffffffffffffffffffffffffffffff16906020019092919080359060200190929190505050612678565b6040518082815260200191505060405180910390f35b6108196004803603602081101561080357600080fd5b81019080803590602001909291905050506126f9565b604051808215151515815260200191505060405180910390f35b6108636004803603602081101561084957600080fd5b81019080803561ffff169060200190929190505050612719565b005b6108956004803603602081101561087b57600080fd5b81019080803561ffff1690602001909291905050506127b3565b005b61089f61284d565b005b6108a9612988565b604051808273ffffffffffffffffffffffffffffffffffffffff1673ffffffffffffffffffffffffffffffffffffffff16815260200191505060405180910390f35b6108f36129b2565b604051808215151515815260200191505060405180910390f35b610915612a11565b604051808273ffffffffffffffffffffffffffffffffffffffff1673ffffffffffffffffffffffffffffffffffffffff16815260200191505060405180910390f35b61095f612a37565b6040518082815260200191505060405180910390f35b610a1d600480360360c081101561098b57600080fd5b81019080803573ffffffffffffffffffffffffffffffffffffffff169060200190929190803573ffffffffffffffffffffffffffffffffffffffff169060200190929190803573ffffffffffffffffffffffffffffffffffffffff169060200190929190803561ffff169060200190929190803561ffff16906020019092919080359060200190929190505050612a3d565b005b610a27612be8565b6040518082815260200191505060405180910390f35b610a7f60048036036020811015610a5357600080fd5b81019080803573ffffffffffffffffffffffffffffffffffffffff169060200190929190505050612bee565b005b610ae160048036036080811015610a9757600080fd5b810190808035906020019092919080359060200190929190803573ffffffffffffffffffffffffffffffffffffffff16906020019092919080359060200190929190505050612cf7565b6040518082815260200191505060405180910390f35b610bba60048036036040811015610b0d57600080fd5b810190808035906020019092919080359060200190640100000000811115610b3457600080fd5b820183602082011115610b4657600080fd5b80359060200191846001830284011164010000000083111715610b6857600080fd5b91908080601f016020809104026020016040519081016040528093929190818152602001838380828437600081840152601f19601f820116905080830192505050505050509192919290505050612dc4565b604051808215151515815260200191505060405180910390f35b610bdc612e28565b604051808273ffffffffffffffffffffffffffffffffffffffff1673ffffffffffffffffffffffffffffffffffffffff16815260200191505060405180910390f35b610c6060048036036020811015610c3457600080fd5b81019080803573ffffffffffffffffffffffffffffffffffffffff169060200190929190505050612e4e565b005b610ca460048036036020811015610c7857600080fd5b81019080803573ffffffffffffffffffffffffffffffffffffffff169060200190929190505050612f92565b005b610ce460048036036040811015610cbc57600080fd5b81019080803561ffff169060200190929190803561ffff169060200190929190505050613153565b005b610d2860048036036020811015610cfc57600080fd5b81019080803573ffffffffffffffffffffffffffffffffffffffff16906020019092919050505061320b565b005b610d326132e0565b604051808273ffffffffffffffffffffffffffffffffffffffff1673ffffffffffffffffffffffffffffffffffffffff16815260200191505060405180910390f35b610d7c613306565b604051808261ffff1661ffff16815260200191505060405180910390f35b606a60009054906101000a900473ffffffffffffffffffffffffffffffffffffffff1673ffffffffffffffffffffffffffffffffffffffff163373ffffffffffffffffffffffffffffffffffffffff161480610e285750610df9612988565b73ffffffffffffffffffffffffffffffffffffffff163373ffffffffffffffffffffffffffffffffffffffff16145b610e7d576040517f08c379a00000000000000000000000000000000000000000000000000000000081526004018080602001828103825260368152602001806148f96036913960400191505060405180910390fd5b600073ffffffffffffffffffffffffffffffffffffffff168173ffffffffffffffffffffffffffffffffffffffff161415610f03576040517f08c379a000000000000000000000000000000000000000000000000000000000815260040180806020018281038252603881526020018061492f6038913960400191505060405180910390fd5b80606a60006101000a81548173ffffffffffffffffffffffffffffffffffffffff021916908373ffffffffffffffffffffffffffffffffffffffff160217905550606a60009054906101000a900473ffffffffffffffffffffffffffffffffffffffff1673ffffffffffffffffffffffffffffffffffffffff167ff0f08e606c1dd3a2c220ada53422fd9fe0aa75614b27db0549f649de3ad2072a60405160405180910390a250565b610fb46129b2565b611026576040517f08c379a00000000000000000000000000000000000000000000000000000000081526004018080602001828103825260208152602001807f4f776e61626c653a2063616c6c6572206973206e6f7420746865206f776e657281525060200191505060405180910390fd5b80606f8190555050565b606960009054906101000a900473ffffffffffffffffffffffffffffffffffffffff1673ffffffffffffffffffffffffffffffffffffffff16634e71e0c86040518163ffffffff1660e01b8152600401600060405180830381600087803b15801561109a57600080fd5b505af11580156110ae573d6000803e3d6000fd5b50505050565b606b60149054906101000a900461ffff1681565b6000806110d786863387612678565b905060006110e787873388612cf7565b905060001515606c600084815260200190815260200160002060009054906101000a900460ff161515148015611141575060001515606c600083815260200190815260200160002060009054906101000a900460ff161515145b611196576040517f08c379a00000000000000000000000000000000000000000000000000000000081526004018080602001828103825260258152602001806148726025913960400191505060405180910390fd5b6111a08285612dc4565b1580156111b457506111b28185612dc4565b155b15611341576112a0604051806060016040528060278152602001614825602791396111de8961331a565b6040518060400160405280600a81526020017f2c20616d6f756e743a200000000000000000000000000000000000000000000081525061121d8a613575565b6040518060400160405280600e81526020017f2c206d73672e73656e6465723a2000000000000000000000000000000000000081525061125c336136a2565b6040518060400160405280600a81526020017f2c205f6e486173683a200000000000000000000000000000000000000000000081525061129b8d61331a565b613923565b6040517f08c379a00000000000000000000000000000000000000000000000000000000081526004018080602001828103825283818151815260200191508051906020019080838360005b838110156113065780820151818401526020810190506112eb565b50505050905090810190601f1680156113335780820380516001836020036101000a031916815260200191505b509250505060405180910390fd5b6001606c600084815260200190815260200160002060006101000a81548160ff0219169083151502179055506001606c600083815260200190815260200160002060006101000a81548160ff0219169083151502179055506000606960009054906101000a900473ffffffffffffffffffffffffffffffffffffffff1673ffffffffffffffffffffffffffffffffffffffff1663a173b2f6886040518263ffffffff1660e01b81526004018082815260200191505060206040518083038186803b15801561140e57600080fd5b505afa158015611422573d6000803e3d6000fd5b505050506040513d602081101561143857600080fd5b81019080805190602001909291905050509050600061148861271061147a606b60149054906101000a900461ffff1661ffff1685613be390919063ffffffff16565b613c6990919063ffffffff16565b905060006114d6826040518060400160405280601f81526020017f4d696e74476174657761793a20666565206578636565647320616d6f756e740081525085613cb39092919063ffffffff16565b9050606960009054906101000a900473ffffffffffffffffffffffffffffffffffffffff1673ffffffffffffffffffffffffffffffffffffffff166340c10f1933836040518363ffffffff1660e01b8152600401808373ffffffffffffffffffffffffffffffffffffffff1673ffffffffffffffffffffffffffffffffffffffff16815260200182815260200192505050600060405180830381600087803b15801561158157600080fd5b505af1158015611595573d6000803e3d6000fd5b50505050600082111561168657606960009054906101000a900473ffffffffffffffffffffffffffffffffffffffff1673ffffffffffffffffffffffffffffffffffffffff166340c10f19606b60009054906101000a900473ffffffffffffffffffffffffffffffffffffffff16846040518363ffffffff1660e01b8152600401808373ffffffffffffffffffffffffffffffffffffffff1673ffffffffffffffffffffffffffffffffffffffff16815260200182815260200192505050600060405180830381600087803b15801561166d57600080fd5b505af1158015611681573d6000803e3d6000fd5b505050505b6000606960009054906101000a900473ffffffffffffffffffffffffffffffffffffffff1673ffffffffffffffffffffffffffffffffffffffff1663eb438fc2836040518263ffffffff1660e01b81526004018082815260200191505060206040518083038186803b1580156116fb57600080fd5b505afa15801561170f573d6000803e3d6000fd5b505050506040513d602081101561172557600080fd5b8101908080519060200190929190505050905088606d543373ffffffffffffffffffffffffffffffffffffffff167fa58ba939eb08dab7eaf8ad09c16e7405ee88e5153e15da62d5481296a9f727fa846040518082815260200191505060405180910390a46001606d60008282540192505081905550819650505050505050949350505050565b6117b46129b2565b611826576040517f08c379a00000000000000000000000000000000000000000000000000000000081526004018080602001828103825260208152602001807f4f776e61626c653a2063616c6c6572206973206e6f7420746865206f776e657281525060200191505060405180910390fd5b606760008273ffffffffffffffffffffffffffffffffffffffff1673ffffffffffffffffffffffffffffffffffffffff16815260200190815260200160002060009054906101000a900460ff16156118c9576040517f08c379a000000000000000000000000000000000000000000000000000000000815260040180806020018281038252602a815260200180614897602a913960400191505060405180910390fd5b600073ffffffffffffffffffffffffffffffffffffffff168173ffffffffffffffffffffffffffffffffffffffff16141561194a573373ffffffffffffffffffffffffffffffffffffffff166108fc479081150290604051600060405180830381858888f19350505050158015611944573d6000803e3d6000fd5b50611a2d565b611a2c338273ffffffffffffffffffffffffffffffffffffffff166370a08231306040518263ffffffff1660e01b8152600401808273ffffffffffffffffffffffffffffffffffffffff1673ffffffffffffffffffffffffffffffffffffffff16815260200191505060206040518083038186803b1580156119cb57600080fd5b505afa1580156119df573d6000803e3d6000fd5b505050506040513d60208110156119f557600080fd5b81019080805190602001909291905050508373ffffffffffffffffffffffffffffffffffffffff16613d739092919063ffffffff16565b5b50565b611a386129b2565b611aaa576040517f08c379a00000000000000000000000000000000000000000000000000000000081526004018080602001828103825260208152602001807f4f776e61626c653a2063616c6c6572206973206e6f7420746865206f776e657281525060200191505060405180910390fd5b606960009054906101000a900473ffffffffffffffffffffffffffffffffffffffff1673ffffffffffffffffffffffffffffffffffffffff1663f2fde38b826040518263ffffffff1660e01b8152600401808273ffffffffffffffffffffffffffffffffffffffff1673ffffffffffffffffffffffffffffffffffffffff168152602001915050600060405180830381600087803b158015611b4b57600080fd5b505af1158015611b5f573d6000803e3d6000fd5b505050508073ffffffffffffffffffffffffffffffffffffffff166310731a656040518163ffffffff1660e01b8152600401600060405180830381600087803b158015611bab57600080fd5b505af1158015611bbf573d6000803e3d6000fd5b5050505050565b611bce6129b2565b611c40576040517f08c379a00000000000000000000000000000000000000000000000000000000081526004018080602001828103825260208152602001807f4f776e61626c653a2063616c6c6572206973206e6f7420746865206f776e657281525060200191505060405180910390fd5b611c4981613e44565b50565b606f5481565b600060606000606080611c636146d0565b606e60008881526020019081526020016000206040518060a001604052908160008201548152602001600182018054600181600116156101000203166002900480601f016020809104026020016040519081016040528092919081815260200182805460018160011615610100020316600290048015611d245780601f10611cf957610100808354040283529160200191611d24565b820191906000526020600020905b815481529060010190602001808311611d0757829003601f168201915b5050505050815260200160028201548152602001600382018054600181600116156101000203166002900480601f016020809104026020016040519081016040528092919081815260200182805460018160011615610100020316600290048015611dd05780601f10611da557610100808354040283529160200191611dd0565b820191906000526020600020905b815481529060010190602001808311611db357829003601f168201915b50505050508152602001600482018054600181600116156101000203166002900480601f016020809104026020016040519081016040528092919081815260200182805460018160011615610100020316600290048015611e725780601f10611e4757610100808354040283529160200191611e72565b820191906000526020600020905b815481529060010190602001808311611e5557829003601f168201915b5050505050815250509050600081602001515111611ef8576040517f08c379a000000000000000000000000000000000000000000000000000000000815260040180806020018281038252601b8152602001807f4d696e74476174657761793a206275726e206e6f7420666f756e64000000000081525060200191505060405180910390fd5b80600001518160200151826040015183606001518460800151839350819150809050955095509550955095505091939590929450565b60008083511415611fa7576040517f08c379a00000000000000000000000000000000000000000000000000000000081526004018080602001828103825260208152602001807f4d696e74476174657761793a20746f206164647265737320697320656d70747981525060200191505060405180910390fd5b6000611fe4612710611fd6606b60169054906101000a900461ffff1661ffff1686613be390919063ffffffff16565b613c6990919063ffffffff16565b90506000612032826040518060400160405280601f81526020017f4d696e74476174657761793a20666565206578636565647320616d6f756e740081525086613cb39092919063ffffffff16565b90506000606960009054906101000a900473ffffffffffffffffffffffffffffffffffffffff1673ffffffffffffffffffffffffffffffffffffffff1663eb438fc2836040518263ffffffff1660e01b81526004018082815260200191505060206040518083038186803b1580156120a957600080fd5b505afa1580156120bd573d6000803e3d6000fd5b505050506040513d60208110156120d357600080fd5b81019080805190602001909291905050509050606960009054906101000a900473ffffffffffffffffffffffffffffffffffffffff1673ffffffffffffffffffffffffffffffffffffffff16639dc29fac33876040518363ffffffff1660e01b8152600401808373ffffffffffffffffffffffffffffffffffffffff1673ffffffffffffffffffffffffffffffffffffffff16815260200182815260200192505050600060405180830381600087803b15801561218f57600080fd5b505af11580156121a3573d6000803e3d6000fd5b50505050600083111561229457606960009054906101000a900473ffffffffffffffffffffffffffffffffffffffff1673ffffffffffffffffffffffffffffffffffffffff166340c10f19606b60009054906101000a900473ffffffffffffffffffffffffffffffffffffffff16856040518363ffffffff1660e01b8152600401808373ffffffffffffffffffffffffffffffffffffffff1673ffffffffffffffffffffffffffffffffffffffff16815260200182815260200192505050600060405180830381600087803b15801561227b57600080fd5b505af115801561228f573d6000803e3d6000fd5b505050505b60685481116122ee576040517f08c379a00000000000000000000000000000000000000000000000000000000081526004018080602001828103825260388152602001806148c16038913960400191505060405180910390fd5b856040518082805190602001908083835b6020831061232257805182526020820191506020810190506020830392506122ff565b6001836020036101000a0380198251168184511680821785525050505050509050019150506040518091039020606d547f1619fc95050ffb8c94c9077c82b3e1ebbf8d571b6234241c55ba0aaf40da019e88846040518080602001838152602001828103825284818151815260200191508051906020019080838360005b838110156123bb5780820151818401526020810190506123a0565b50505050905090810190601f1680156123e85780820380516001836020036101000a031916815260200191505b50935050505060405180910390a360606040518060a0016040528043815260200188815260200183815260200160405180602001604052806000815250815260200182815250606e6000606d5481526020019081526020016000206000820151816000015560208201518160010190805190602001906124699291906146ff565b5060408201518160020155606082015181600301908051906020019061249092919061477f565b5060808201518160040190805190602001906124ad9291906146ff565b509050506001606d600082825401925050819055508194505050505092915050565b6124d76129b2565b612549576040517f08c379a00000000000000000000000000000000000000000000000000000000081526004018080602001828103825260208152602001807f4f776e61626c653a2063616c6c6572206973206e6f7420746865206f776e657281525060200191505060405180910390fd5b8060688190555050565b606b60009054906101000a900473ffffffffffffffffffffffffffffffffffffffff1681565b606660009054906101000a900473ffffffffffffffffffffffffffffffffffffffff1673ffffffffffffffffffffffffffffffffffffffff166125ba613f8a565b73ffffffffffffffffffffffffffffffffffffffff1614612626576040517f08c379a000000000000000000000000000000000000000000000000000000000815260040180806020018281038252602a8152602001806149b6602a913960400191505060405180910390fd5b612651606660009054906101000a900473ffffffffffffffffffffffffffffffffffffffff16613e44565b606660006101000a81549073ffffffffffffffffffffffffffffffffffffffff0219169055565b60008484606f548585604051602001808681526020018581526020018481526020018373ffffffffffffffffffffffffffffffffffffffff1673ffffffffffffffffffffffffffffffffffffffff16815260200182815260200195505050505050604051602081830303815290604052805190602001209050949350505050565b606c6020528060005260406000206000915054906101000a900460ff1681565b6127216129b2565b612793576040517f08c379a00000000000000000000000000000000000000000000000000000000081526004018080602001828103825260208152602001807f4f776e61626c653a2063616c6c6572206973206e6f7420746865206f776e657281525060200191505060405180910390fd5b80606b60166101000a81548161ffff021916908361ffff16021790555050565b6127bb6129b2565b61282d576040517f08c379a00000000000000000000000000000000000000000000000000000000081526004018080602001828103825260208152602001807f4f776e61626c653a2063616c6c6572206973206e6f7420746865206f776e657281525060200191505060405180910390fd5b80606b60146101000a81548161ffff021916908361ffff16021790555050565b6128556129b2565b6128c7576040517f08c379a00000000000000000000000000000000000000000000000000000000081526004018080602001828103825260208152602001807f4f776e61626c653a2063616c6c6572206973206e6f7420746865206f776e657281525060200191505060405180910390fd5b600073ffffffffffffffffffffffffffffffffffffffff16603360009054906101000a900473ffffffffffffffffffffffffffffffffffffffff1673ffffffffffffffffffffffffffffffffffffffff167f8be0079c531659141344cd1fd0a4f28419497f9722a3daafe3b4186f6b6457e060405160405180910390a36000603360006101000a81548173ffffffffffffffffffffffffffffffffffffffff021916908373ffffffffffffffffffffffffffffffffffffffff160217905550565b6000603360009054906101000a900473ffffffffffffffffffffffffffffffffffffffff16905090565b6000603360009054906101000a900473ffffffffffffffffffffffffffffffffffffffff1673ffffffffffffffffffffffffffffffffffffffff166129f5613f8a565b73ffffffffffffffffffffffffffffffffffffffff1614905090565b606a60009054906101000a900473ffffffffffffffffffffffffffffffffffffffff1681565b60685481565b600060019054906101000a900460ff1680612a5c5750612a5b613f92565b5b80612a7357506000809054906101000a900460ff16155b612ac8576040517f08c379a000000000000000000000000000000000000000000000000000000000815260040180806020018281038252602e815260200180614988602e913960400191505060405180910390fd5b60008060019054906101000a900460ff161590508015612b18576001600060016101000a81548160ff02191690831515021790555060016000806101000a81548160ff0219169083151502179055505b612b2133613fa9565b612b2a33612bee565b8160688190555086606960006101000a81548173ffffffffffffffffffffffffffffffffffffffff021916908373ffffffffffffffffffffffffffffffffffffffff16021790555083606b60146101000a81548161ffff021916908361ffff16021790555082606b60166101000a81548161ffff021916908361ffff160217905550612bb585610d9a565b612bbe86612e4e565b8015612bdf5760008060016101000a81548160ff0219169083151502179055505b50505050505050565b606d5481565b600060019054906101000a900460ff1680612c0d5750612c0c613f92565b5b80612c2457506000809054906101000a900460ff16155b612c79576040517f08c379a000000000000000000000000000000000000000000000000000000000815260040180806020018281038252602e815260200180614988602e913960400191505060405180910390fd5b60008060019054906101000a900460ff161590508015612cc9576001600060016101000a81548160ff02191690831515021790555060016000806101000a81548160ff0219169083151502179055505b612cd282613fa9565b8015612cf35760008060016101000a81548160ff0219169083151502179055505b5050565b60008484606960009054906101000a900473ffffffffffffffffffffffffffffffffffffffff168585604051602001808681526020018581526020018473ffffffffffffffffffffffffffffffffffffffff1673ffffffffffffffffffffffffffffffffffffffff1681526020018373ffffffffffffffffffffffffffffffffffffffff1673ffffffffffffffffffffffffffffffffffffffff16815260200182815260200195505050505050604051602081830303815290604052805190602001209050949350505050565b6000612dd083836140b2565b73ffffffffffffffffffffffffffffffffffffffff16606a60009054906101000a900473ffffffffffffffffffffffffffffffffffffffff1673ffffffffffffffffffffffffffffffffffffffff1614905092915050565b606660009054906101000a900473ffffffffffffffffffffffffffffffffffffffff1681565b612e566129b2565b612ec8576040517f08c379a00000000000000000000000000000000000000000000000000000000081526004018080602001828103825260208152602001807f4f776e61626c653a2063616c6c6572206973206e6f7420746865206f776e657281525060200191505060405180910390fd5b600073ffffffffffffffffffffffffffffffffffffffff168173ffffffffffffffffffffffffffffffffffffffff161415612f4e576040517f08c379a0000000000000000000000000000000000000000000000000000000008152600401808060200182810382526028815260200180614a0a6028913960400191505060405180910390fd5b80606b60006101000a81548173ffffffffffffffffffffffffffffffffffffffff021916908373ffffffffffffffffffffffffffffffffffffffff16021790555050565b612f9a6129b2565b61300c576040517f08c379a00000000000000000000000000000000000000000000000000000000081526004018080602001828103825260208152602001807f4f776e61626c653a2063616c6c6572206973206e6f7420746865206f776e657281525060200191505060405180910390fd5b613014612988565b73ffffffffffffffffffffffffffffffffffffffff168173ffffffffffffffffffffffffffffffffffffffff161415801561309d5750606660009054906101000a900473ffffffffffffffffffffffffffffffffffffffff1673ffffffffffffffffffffffffffffffffffffffff168173ffffffffffffffffffffffffffffffffffffffff1614155b61310f576040517f08c379a000000000000000000000000000000000000000000000000000000000815260040180806020018281038252601c8152602001807f436c61696d61626c653a20696e76616c6964206e6577206f776e65720000000081525060200191505060405180910390fd5b80606660006101000a81548173ffffffffffffffffffffffffffffffffffffffff021916908373ffffffffffffffffffffffffffffffffffffffff16021790555050565b61315b6129b2565b6131cd576040517f08c379a00000000000000000000000000000000000000000000000000000000081526004018080602001828103825260208152602001807f4f776e61626c653a2063616c6c6572206973206e6f7420746865206f776e657281525060200191505060405180910390fd5b81606b60146101000a81548161ffff021916908361ffff16021790555080606b60166101000a81548161ffff021916908361ffff1602179055505050565b6132136129b2565b613285576040517f08c379a00000000000000000000000000000000000000000000000000000000081526004018080602001828103825260208152602001807f4f776e61626c653a2063616c6c6572206973206e6f7420746865206f776e657281525060200191505060405180910390fd5b6001606760008373ffffffffffffffffffffffffffffffffffffffff1673ffffffffffffffffffffffffffffffffffffffff16815260200190815260200160002060006101000a81548160ff02191690831515021790555050565b606960009054906101000a900473ffffffffffffffffffffffffffffffffffffffff1681565b606b60169054906101000a900461ffff1681565b6060806040518060400160405280601081526020017f30313233343536373839616263646566000000000000000000000000000000008152509050606060426040519080825280601f01601f19166020018201604052801561338b5781602001600182028038833980820191505090505b5090507f3000000000000000000000000000000000000000000000000000000000000000816000815181106133bc57fe5b60200101907effffffffffffffffffffffffffffffffffffffffffffffffffffffffffffff1916908160001a9053507f78000000000000000000000000000000000000000000000000000000000000008160018151811061341957fe5b60200101907effffffffffffffffffffffffffffffffffffffffffffffffffffffffffffff1916908160001a90535060008090505b602081101561356a5782600486836020811061346657fe5b1a60f81b7effffffffffffffffffffffffffffffffffffffffffffffffffffffffffffff1916901c60f81c60ff168151811061349e57fe5b602001015160f81c60f81b8260028302600201815181106134bb57fe5b60200101907effffffffffffffffffffffffffffffffffffffffffffffffffffffffffffff1916908160001a90535082600f60f81b8683602081106134fc57fe5b1a60f81b1660f81c60ff168151811061351157fe5b602001015160f81c60f81b82600283026003018151811061352e57fe5b60200101907effffffffffffffffffffffffffffffffffffffffffffffffffffffffffffff1916908160001a905350808060010191505061344e565b508092505050919050565b606060008214156135bd576040518060400160405280600181526020017f3000000000000000000000000000000000000000000000000000000000000000815250905061369d565b600082905060005b600082146135e7578080600101915050600a82816135df57fe5b0491506135c5565b6060816040519080825280601f01601f19166020018201604052801561361c5781602001600182028038833980820191505090505b50905060006001830390505b6000861461369557600a868161363a57fe5b0660300160f81b8282806001900393508151811061365457fe5b60200101907effffffffffffffffffffffffffffffffffffffffffffffffffffffffffffff1916908160001a905350600a868161368d57fe5b049550613628565b819450505050505b919050565b606060008273ffffffffffffffffffffffffffffffffffffffff1660001b905060606040518060400160405280601081526020017f303132333435363738396162636465660000000000000000000000000000000081525090506060602a6040519080825280601f01601f1916602001820160405280156137325781602001600182028038833980820191505090505b5090507f30000000000000000000000000000000000000000000000000000000000000008160008151811061376357fe5b60200101907effffffffffffffffffffffffffffffffffffffffffffffffffffffffffffff1916908160001a9053507f7800000000000000000000000000000000000000000000000000000000000000816001815181106137c057fe5b60200101907effffffffffffffffffffffffffffffffffffffffffffffffffffffffffffff1916908160001a90535060008090505b60148110156139175782600485600c84016020811061381057fe5b1a60f81b7effffffffffffffffffffffffffffffffffffffffffffffffffffffffffffff1916901c60f81c60ff168151811061384857fe5b602001015160f81c60f81b82600283026002018151811061386557fe5b60200101907effffffffffffffffffffffffffffffffffffffffffffffffffffffffffffff1916908160001a90535082600f60f81b85600c8401602081106138a957fe5b1a60f81b1660f81c60ff16815181106138be57fe5b602001015160f81c60f81b8260028302600301815181106138db57fe5b60200101907effffffffffffffffffffffffffffffffffffffffffffffffffffffffffffff1916908160001a90535080806001019150506137f5565b50809350505050919050565b606088888888888888886040516020018089805190602001908083835b602083106139635780518252602082019150602081019050602083039250613940565b6001836020036101000a03801982511681845116808217855250505050505090500188805190602001908083835b602083106139b45780518252602082019150602081019050602083039250613991565b6001836020036101000a03801982511681845116808217855250505050505090500187805190602001908083835b60208310613a0557805182526020820191506020810190506020830392506139e2565b6001836020036101000a03801982511681845116808217855250505050505090500186805190602001908083835b60208310613a565780518252602082019150602081019050602083039250613a33565b6001836020036101000a03801982511681845116808217855250505050505090500185805190602001908083835b60208310613aa75780518252602082019150602081019050602083039250613a84565b6001836020036101000a03801982511681845116808217855250505050505090500184805190602001908083835b60208310613af85780518252602082019150602081019050602083039250613ad5565b6001836020036101000a03801982511681845116808217855250505050505090500183805190602001908083835b60208310613b495780518252602082019150602081019050602083039250613b26565b6001836020036101000a03801982511681845116808217855250505050505090500182805190602001908083835b60208310613b9a5780518252602082019150602081019050602083039250613b77565b6001836020036101000a03801982511681845116808217855250505050505090500198505050505050505050604051602081830303815290604052905098975050505050505050565b600080831415613bf65760009050613c63565b6000828402905082848281613c0757fe5b0414613c5e576040517f08c379a00000000000000000000000000000000000000000000000000000000081526004018080602001828103825260218152602001806149676021913960400191505060405180910390fd5b809150505b92915050565b6000613cab83836040518060400160405280601a81526020017f536166654d6174683a206469766973696f6e206279207a65726f0000000000008152506141b6565b905092915050565b6000838311158290613d60576040517f08c379a00000000000000000000000000000000000000000000000000000000081526004018080602001828103825283818151815260200191508051906020019080838360005b83811015613d25578082015181840152602081019050613d0a565b50505050905090810190601f168015613d525780820380516001836020036101000a031916815260200191505b509250505060405180910390fd5b5060008385039050809150509392505050565b613e3f838473ffffffffffffffffffffffffffffffffffffffff1663a9059cbb905060e01b8484604051602401808373ffffffffffffffffffffffffffffffffffffffff1673ffffffffffffffffffffffffffffffffffffffff16815260200182815260200192505050604051602081830303815290604052907bffffffffffffffffffffffffffffffffffffffffffffffffffffffff19166020820180517bffffffffffffffffffffffffffffffffffffffffffffffffffffffff838183161783525050505061427c565b505050565b600073ffffffffffffffffffffffffffffffffffffffff168173ffffffffffffffffffffffffffffffffffffffff161415613eca576040517f08c379a000000000000000000000000000000000000000000000000000000000815260040180806020018281038252602681526020018061484c6026913960400191505060405180910390fd5b8073ffffffffffffffffffffffffffffffffffffffff16603360009054906101000a900473ffffffffffffffffffffffffffffffffffffffff1673ffffffffffffffffffffffffffffffffffffffff167f8be0079c531659141344cd1fd0a4f28419497f9722a3daafe3b4186f6b6457e060405160405180910390a380603360006101000a81548173ffffffffffffffffffffffffffffffffffffffff021916908373ffffffffffffffffffffffffffffffffffffffff16021790555050565b600033905090565b6000803090506000813b9050600081149250505090565b600060019054906101000a900460ff1680613fc85750613fc7613f92565b5b80613fdf57506000809054906101000a900460ff16155b614034576040517f08c379a000000000000000000000000000000000000000000000000000000000815260040180806020018281038252602e815260200180614988602e913960400191505060405180910390fd5b60008060019054906101000a900460ff161590508015614084576001600060016101000a81548160ff02191690831515021790555060016000806101000a81548160ff0219169083151502179055505b61408d826144c7565b80156140ae5760008060016101000a81548160ff0219169083151502179055505b5050565b600060418251146140c657600090506141b0565b60008060006020850151925060408501519150606085015160001a90507f7fffffffffffffffffffffffffffffff5d576e7357a4501ddfe92f46681b20a08260001c111561411a57600093505050506141b0565b601b8160ff16141580156141325750601c8160ff1614155b1561414357600093505050506141b0565b60018682858560405160008152602001604052604051808581526020018460ff1660ff1681526020018381526020018281526020019450505050506020604051602081039080840390855afa1580156141a0573d6000803e3d6000fd5b5050506020604051035193505050505b92915050565b60008083118290614262576040517f08c379a00000000000000000000000000000000000000000000000000000000081526004018080602001828103825283818151815260200191508051906020019080838360005b8381101561422757808201518184015260208101905061420c565b50505050905090810190601f1680156142545780820380516001836020036101000a031916815260200191505b509250505060405180910390fd5b50600083858161426e57fe5b049050809150509392505050565b61429b8273ffffffffffffffffffffffffffffffffffffffff16614685565b61430d576040517f08c379a000000000000000000000000000000000000000000000000000000000815260040180806020018281038252601f8152602001807f5361666545524332303a2063616c6c20746f206e6f6e2d636f6e74726163740081525060200191505060405180910390fd5b600060608373ffffffffffffffffffffffffffffffffffffffff16836040518082805190602001908083835b6020831061435c5780518252602082019150602081019050602083039250614339565b6001836020036101000a0380198251168184511680821785525050505050509050019150506000604051808303816000865af19150503d80600081146143be576040519150601f19603f3d011682016040523d82523d6000602084013e6143c3565b606091505b50915091508161443b576040517f08c379a00000000000000000000000000000000000000000000000000000000081526004018080602001828103825260208152602001807f5361666545524332303a206c6f772d6c6576656c2063616c6c206661696c656481525060200191505060405180910390fd5b6000815111156144c15780806020019051602081101561445a57600080fd5b81019080805190602001909291905050506144c0576040517f08c379a000000000000000000000000000000000000000000000000000000000815260040180806020018281038252602a8152602001806149e0602a913960400191505060405180910390fd5b5b50505050565b600060019054906101000a900460ff16806144e657506144e5613f92565b5b806144fd57506000809054906101000a900460ff16155b614552576040517f08c379a000000000000000000000000000000000000000000000000000000000815260040180806020018281038252602e815260200180614988602e913960400191505060405180910390fd5b60008060019054906101000a900460ff1615905080156145a2576001600060016101000a81548160ff02191690831515021790555060016000806101000a81548160ff0219169083151502179055505b81603360006101000a81548173ffffffffffffffffffffffffffffffffffffffff021916908373ffffffffffffffffffffffffffffffffffffffff160217905550603360009054906101000a900473ffffffffffffffffffffffffffffffffffffffff1673ffffffffffffffffffffffffffffffffffffffff16600073ffffffffffffffffffffffffffffffffffffffff167f8be0079c531659141344cd1fd0a4f28419497f9722a3daafe3b4186f6b6457e060405160405180910390a380156146815760008060016101000a81548160ff0219169083151502179055505b5050565b60008060007fc5d2460186f7233c927e7db2dcc703c0e500b653ca82273b7bfad8045d85a47060001b9050833f91508082141580156146c757506000801b8214155b92505050919050565b6040518060a0016040528060008152602001606081526020016000815260200160608152602001606081525090565b828054600181600116156101000203166002900490600052602060002090601f016020900481019282601f1061474057805160ff191683800117855561476e565b8280016001018555821561476e579182015b8281111561476d578251825591602001919060010190614752565b5b50905061477b91906147ff565b5090565b828054600181600116156101000203166002900490600052602060002090601f016020900481019282601f106147c057805160ff19168380011785556147ee565b828001600101855582156147ee579182015b828111156147ed5782518255916020019190600101906147d2565b5b5090506147fb91906147ff565b5090565b61482191905b8082111561481d576000816000905550600101614805565b5090565b9056fe4d696e74476174657761793a20696e76616c6964207369676e61747572652e2070486173683a204f776e61626c653a206e6577206f776e657220697320746865207a65726f20616464726573734d696e74476174657761793a206e6f6e6365206861736820616c7265616479207370656e7443616e5265636c61696d546f6b656e733a20746f6b656e206973206e6f74207265636f76657261626c654d696e74476174657761793a20616d6f756e74206973206c657373207468616e20746865206d696e696d756d206275726e20616d6f756e744d696e74476174657761793a2063616c6c6572206973206e6f7420746865206f776e6572206f72206d696e7420617574686f726974794d696e74476174657761793a206d696e74417574686f726974792063616e6e6f742062652073657420746f2061646472657373207a65726f536166654d6174683a206d756c7469706c69636174696f6e206f766572666c6f77436f6e747261637420696e7374616e63652068617320616c7265616479206265656e20696e697469616c697a6564436c61696d61626c653a2063616c6c6572206973206e6f74207468652070656e64696e67206f776e65725361666545524332303a204552433230206f7065726174696f6e20646964206e6f7420737563636565644d696e74476174657761793a2066656520726563697069656e742063616e6e6f7420626520307830a265627a7a723158203a277eff874a802b31833dd9cfa6c86f714637a68bf5e856d715c9958dafb0a764736f6c634300051100324f776e61626c653a206e6577206f776e657220697320746865207a65726f2061646472657373436f6e747261637420696e7374616e63652068617320616c7265616479206265656e20696e697469616c697a6564436c61696d61626c653a2063616c6c6572206973206e6f74207468652070656e64696e67206f776e6572a265627a7a72315820e96ff6be35f49205f2e284199c8aef6f86307ad720d3ec0c5a1b5b912c8ebee364736f6c63430005110032608060405260006068553480156200001657600080fd5b506200002d336200004960201b6200257d1760201c565b62000043336200016d60201b620018a41760201c565b62000474565b600060019054906101000a900460ff1680620000715750620000706200029160201b60201c565b5b806200008957506000809054906101000a900460ff16155b620000e0576040517f08c379a000000000000000000000000000000000000000000000000000000000815260040180806020018281038252602e81526020018062003a24602e913960400191505060405180910390fd5b60008060019054906101000a900460ff16159050801562000131576001600060016101000a81548160ff02191690831515021790555060016000806101000a81548160ff0219169083151502179055505b6200014782620002a860201b620030421760201c565b8015620001695760008060016101000a81548160ff0219169083151502179055505b5050565b600060019054906101000a900460ff1680620001955750620001946200029160201b60201c565b5b80620001ad57506000809054906101000a900460ff16155b62000204576040517f08c379a000000000000000000000000000000000000000000000000000000000815260040180806020018281038252602e81526020018062003a24602e913960400191505060405180910390fd5b60008060019054906101000a900460ff16159050801562000255576001600060016101000a81548160ff02191690831515021790555060016000806101000a81548160ff0219169083151502179055505b6200026b826200004960201b6200257d1760201c565b80156200028d5760008060016101000a81548160ff0219169083151502179055505b5050565b6000803090506000813b9050600081149250505090565b600060019054906101000a900460ff1680620002d05750620002cf6200029160201b60201c565b5b80620002e857506000809054906101000a900460ff16155b6200033f576040517f08c379a000000000000000000000000000000000000000000000000000000000815260040180806020018281038252602e81526020018062003a24602e913960400191505060405180910390fd5b60008060019054906101000a900460ff16159050801562000390576001600060016101000a81548160ff02191690831515021790555060016000806101000a81548160ff0219169083151502179055505b81603360006101000a81548173ffffffffffffffffffffffffffffffffffffffff021916908373ffffffffffffffffffffffffffffffffffffffff160217905550603360009054906101000a900473ffffffffffffffffffffffffffffffffffffffff1673ffffffffffffffffffffffffffffffffffffffff16600073ffffffffffffffffffffffffffffffffffffffff167f8be0079c531659141344cd1fd0a4f28419497f9722a3daafe3b4186f6b6457e060405160405180910390a38015620004705760008060016101000a81548160ff0219169083151502179055505b5050565b6135a080620004846000396000f3fe608060405234801561001057600080fd5b50600436106101215760003560e01c8063920966a8116100ad578063e30c397811610071578063e30c3978146106bb578063efa74f1f14610705578063f2fde38b146107be578063f4146ba214610802578063f65d901c146108a557610121565b8063920966a8146103e4578063b3d0403e146104b7578063c4d66de814610570578063cf4f775c146105b4578063d14230d61461065757610121565b806364936b1e116100f457806364936b1e1461023c578063715018a6146102f55780638028c92e146102ff5780638da5cb5b146103785780638f32d59b146103c257610121565b806316114acd146101265780631b95e3051461016a578063238e5bc8146101ee5780634e71e0c814610232575b600080fd5b6101686004803603602081101561013c57600080fd5b81019080803573ffffffffffffffffffffffffffffffffffffffff1690602001909291905050506108e9565b005b6101ac6004803603602081101561018057600080fd5b81019080803573ffffffffffffffffffffffffffffffffffffffff169060200190929190505050610b6d565b604051808273ffffffffffffffffffffffffffffffffffffffff1673ffffffffffffffffffffffffffffffffffffffff16815260200191505060405180910390f35b6102306004803603602081101561020457600080fd5b81019080803573ffffffffffffffffffffffffffffffffffffffff169060200190929190505050610bd6565b005b61023a610c5c565b005b6102b36004803603602081101561025257600080fd5b810190808035906020019064010000000081111561026f57600080fd5b82018360208201111561028157600080fd5b803590602001918460018302840111640100000000831117156102a357600080fd5b9091929391929390505050610d5b565b604051808273ffffffffffffffffffffffffffffffffffffffff1673ffffffffffffffffffffffffffffffffffffffff16815260200191505060405180910390f35b6102fd610e0c565b005b6103766004803603602081101561031557600080fd5b810190808035906020019064010000000081111561033257600080fd5b82018360208201111561034457600080fd5b8035906020019184600183028401116401000000008311171561036657600080fd5b9091929391929390505050610f47565b005b610380611280565b604051808273ffffffffffffffffffffffffffffffffffffffff1673ffffffffffffffffffffffffffffffffffffffff16815260200191505060405180910390f35b6103ca6112aa565b604051808215151515815260200191505060405180910390f35b61049d600480360360208110156103fa57600080fd5b810190808035906020019064010000000081111561041757600080fd5b82018360208201111561042957600080fd5b8035906020019184600183028401116401000000008311171561044b57600080fd5b91908080601f016020809104026020016040519081016040528093929190818152602001838380828437600081840152601f19601f820116905080830192505050505050509192919290505050611309565b604051808215151515815260200191505060405180910390f35b61056e600480360360608110156104cd57600080fd5b81019080803590602001906401000000008111156104ea57600080fd5b8201836020820111156104fc57600080fd5b8035906020019184600183028401116401000000008311171561051e57600080fd5b9091929391929390803573ffffffffffffffffffffffffffffffffffffffff169060200190929190803573ffffffffffffffffffffffffffffffffffffffff1690602001909291905050506113b6565b005b6105b26004803603602081101561058657600080fd5b81019080803573ffffffffffffffffffffffffffffffffffffffff1690602001909291905050506118a4565b005b610600600480360360408110156105ca57600080fd5b81019080803573ffffffffffffffffffffffffffffffffffffffff169060200190929190803590602001909291905050506119ad565b6040518080602001828103825283818151815260200191508051906020019060200280838360005b83811015610643578082015181840152602081019050610628565b505050509050019250505060405180910390f35b6106b96004803603604081101561066d57600080fd5b81019080803573ffffffffffffffffffffffffffffffffffffffff169060200190929190803573ffffffffffffffffffffffffffffffffffffffff1690602001909291905050506119d4565b005b6106c3611c42565b604051808273ffffffffffffffffffffffffffffffffffffffff1673ffffffffffffffffffffffffffffffffffffffff16815260200191505060405180910390f35b61077c6004803603602081101561071b57600080fd5b810190808035906020019064010000000081111561073857600080fd5b82018360208201111561074a57600080fd5b8035906020019184600183028401116401000000008311171561076c57600080fd5b9091929391929390505050611c68565b604051808273ffffffffffffffffffffffffffffffffffffffff1673ffffffffffffffffffffffffffffffffffffffff16815260200191505060405180910390f35b610800600480360360208110156107d457600080fd5b81019080803573ffffffffffffffffffffffffffffffffffffffff169060200190929190505050611cba565b005b61084e6004803603604081101561081857600080fd5b81019080803573ffffffffffffffffffffffffffffffffffffffff16906020019092919080359060200190929190505050611e7b565b6040518080602001828103825283818151815260200191508051906020019060200280838360005b83811015610891578082015181840152602081019050610876565b505050509050019250505060405180910390f35b6108e7600480360360208110156108bb57600080fd5b81019080803573ffffffffffffffffffffffffffffffffffffffff169060200190929190505050611ea2565b005b6108f16112aa565b610963576040517f08c379a00000000000000000000000000000000000000000000000000000000081526004018080602001828103825260208152602001807f4f776e61626c653a2063616c6c6572206973206e6f7420746865206f776e657281525060200191505060405180910390fd5b606760008273ffffffffffffffffffffffffffffffffffffffff1673ffffffffffffffffffffffffffffffffffffffff16815260200190815260200160002060009054906101000a900460ff1615610a06576040517f08c379a000000000000000000000000000000000000000000000000000000000815260040180806020018281038252602a8152602001806133cb602a913960400191505060405180910390fd5b600073ffffffffffffffffffffffffffffffffffffffff168173ffffffffffffffffffffffffffffffffffffffff161415610a87573373ffffffffffffffffffffffffffffffffffffffff166108fc479081150290604051600060405180830381858888f19350505050158015610a81573d6000803e3d6000fd5b50610b6a565b610b69338273ffffffffffffffffffffffffffffffffffffffff166370a08231306040518263ffffffff1660e01b8152600401808273ffffffffffffffffffffffffffffffffffffffff1673ffffffffffffffffffffffffffffffffffffffff16815260200191505060206040518083038186803b158015610b0857600080fd5b505afa158015610b1c573d6000803e3d6000fd5b505050506040513d6020811015610b3257600080fd5b81019080805190602001909291905050508373ffffffffffffffffffffffffffffffffffffffff16611f779092919063ffffffff16565b5b50565b6000606b60008373ffffffffffffffffffffffffffffffffffffffff1673ffffffffffffffffffffffffffffffffffffffff16815260200190815260200160002060009054906101000a900473ffffffffffffffffffffffffffffffffffffffff169050919050565b610bde6112aa565b610c50576040517f08c379a00000000000000000000000000000000000000000000000000000000081526004018080602001828103825260208152602001807f4f776e61626c653a2063616c6c6572206973206e6f7420746865206f776e657281525060200191505060405180910390fd5b610c5981612048565b50565b606660009054906101000a900473ffffffffffffffffffffffffffffffffffffffff1673ffffffffffffffffffffffffffffffffffffffff16610c9d61218e565b73ffffffffffffffffffffffffffffffffffffffff1614610d09576040517f08c379a000000000000000000000000000000000000000000000000000000000815260040180806020018281038252602a8152602001806134c8602a913960400191505060405180910390fd5b610d34606660009054906101000a900473ffffffffffffffffffffffffffffffffffffffff16612048565b606660006101000a81549073ffffffffffffffffffffffffffffffffffffffff0219169055565b6000606b6000606c8585604051808383808284378083019250505092505050908152602001604051809103902060009054906101000a900473ffffffffffffffffffffffffffffffffffffffff1673ffffffffffffffffffffffffffffffffffffffff1673ffffffffffffffffffffffffffffffffffffffff16815260200190815260200160002060009054906101000a900473ffffffffffffffffffffffffffffffffffffffff16905092915050565b610e146112aa565b610e86576040517f08c379a00000000000000000000000000000000000000000000000000000000081526004018080602001828103825260208152602001807f4f776e61626c653a2063616c6c6572206973206e6f7420746865206f776e657281525060200191505060405180910390fd5b600073ffffffffffffffffffffffffffffffffffffffff16603360009054906101000a900473ffffffffffffffffffffffffffffffffffffffff1673ffffffffffffffffffffffffffffffffffffffff167f8be0079c531659141344cd1fd0a4f28419497f9722a3daafe3b4186f6b6457e060405160405180910390a36000603360006101000a81548173ffffffffffffffffffffffffffffffffffffffff021916908373ffffffffffffffffffffffffffffffffffffffff160217905550565b610f4f6112aa565b610fc1576040517f08c379a00000000000000000000000000000000000000000000000000000000081526004018080602001828103825260208152602001807f4f776e61626c653a2063616c6c6572206973206e6f7420746865206f776e657281525060200191505060405180910390fd5b6000606c8383604051808383808284378083019250505092505050908152602001604051809103902060009054906101000a900473ffffffffffffffffffffffffffffffffffffffff169050600073ffffffffffffffffffffffffffffffffffffffff168173ffffffffffffffffffffffffffffffffffffffff161415611093576040517f08c379a00000000000000000000000000000000000000000000000000000000081526004018080602001828103825260268152602001806134f26026913960400191505060405180910390fd5b6000606b60008373ffffffffffffffffffffffffffffffffffffffff1673ffffffffffffffffffffffffffffffffffffffff16815260200190815260200160002060009054906101000a900473ffffffffffffffffffffffffffffffffffffffff169050606b60008373ffffffffffffffffffffffffffffffffffffffff1673ffffffffffffffffffffffffffffffffffffffff16815260200190815260200160002060006101000a81549073ffffffffffffffffffffffffffffffffffffffff0219169055606c8484604051808383808284378083019250505092505050908152602001604051809103902060006101000a81549073ffffffffffffffffffffffffffffffffffffffff02191690556111ae606982612196565b6111b9606a83612196565b60016068600082825403925050819055508073ffffffffffffffffffffffffffffffffffffffff168273ffffffffffffffffffffffffffffffffffffffff16858560405180838380828437808301925050509250505060405180910390207fea98e49727cf7c3a8c3926a036a6d41047c9b766d9109f22962950f37a2094aa878760405180806020018281038252848482818152602001925080828437600081840152601f19601f820116905080830192505050935050505060405180910390a450505050565b6000603360009054906101000a900473ffffffffffffffffffffffffffffffffffffffff16905090565b6000603360009054906101000a900473ffffffffffffffffffffffffffffffffffffffff1673ffffffffffffffffffffffffffffffffffffffff166112ed61218e565b73ffffffffffffffffffffffffffffffffffffffff1614905090565b600080600090505b82518110156113ab57600083828151811061132857fe5b602001015160f81c60f81b60f81c905060418160ff16101580156113505750605a8160ff1611155b8061136f575060618160ff161015801561136e5750607a8160ff1611155b5b8061138e575060308160ff161015801561138d575060398160ff1611155b5b61139d576000925050506113b1565b508080600101915050611311565b50600190505b919050565b6113be6112aa565b611430576040517f08c379a00000000000000000000000000000000000000000000000000000000081526004018080602001828103825260208152602001807f4f776e61626c653a2063616c6c6572206973206e6f7420746865206f776e657281525060200191505060405180910390fd5b61147d84848080601f016020809104026020016040519081016040528093929190818152602001838380828437600081840152601f19601f82011690508083019250505050505050611309565b6114d2576040517f08c379a000000000000000000000000000000000000000000000000000000000815260040180806020018281038252602c81526020018061341a602c913960400191505060405180910390fd5b6114dd6069826124f3565b15611533576040517f08c379a000000000000000000000000000000000000000000000000000000000815260040180806020018281038252602b81526020018061346f602b913960400191505060405180910390fd5b600073ffffffffffffffffffffffffffffffffffffffff16606b60008473ffffffffffffffffffffffffffffffffffffffff1673ffffffffffffffffffffffffffffffffffffffff16815260200190815260200160002060009054906101000a900473ffffffffffffffffffffffffffffffffffffffff1673ffffffffffffffffffffffffffffffffffffffff1614611617576040517f08c379a00000000000000000000000000000000000000000000000000000000081526004018080602001828103825260298152602001806134466029913960400191505060405180910390fd5b600073ffffffffffffffffffffffffffffffffffffffff16606c8585604051808383808284378083019250505092505050908152602001604051809103902060009054906101000a900473ffffffffffffffffffffffffffffffffffffffff1673ffffffffffffffffffffffffffffffffffffffff16146116e3576040517f08c379a000000000000000000000000000000000000000000000000000000000815260040180806020018281038252602a815260200180613542602a913960400191505060405180910390fd5b6116ee60698261254f565b6116f9606a8361254f565b81606c8585604051808383808284378083019250505092505050908152602001604051809103902060006101000a81548173ffffffffffffffffffffffffffffffffffffffff021916908373ffffffffffffffffffffffffffffffffffffffff16021790555080606b60008473ffffffffffffffffffffffffffffffffffffffff1673ffffffffffffffffffffffffffffffffffffffff16815260200190815260200160002060006101000a81548173ffffffffffffffffffffffffffffffffffffffff021916908373ffffffffffffffffffffffffffffffffffffffff16021790555060016068600082825401925050819055508073ffffffffffffffffffffffffffffffffffffffff168273ffffffffffffffffffffffffffffffffffffffff16858560405180838380828437808301925050509250505060405180910390207fd433aae9ea620c1976ff88f75c629f477dbffe6bf277edad8a31c983117ab32a878760405180806020018281038252848482818152602001925080828437600081840152601f19601f820116905080830192505050935050505060405180910390a450505050565b600060019054906101000a900460ff16806118c357506118c2612566565b5b806118da57506000809054906101000a900460ff16155b61192f576040517f08c379a000000000000000000000000000000000000000000000000000000000815260040180806020018281038252602e81526020018061349a602e913960400191505060405180910390fd5b60008060019054906101000a900460ff16159050801561197f576001600060016101000a81548160ff02191690831515021790555060016000806101000a81548160ff0219169083151502179055505b6119888261257d565b80156119a95760008060016101000a81548160ff0219169083151502179055505b5050565b60606119cc606a84600085146119c357846119c7565b6068545b612686565b905092915050565b6119dc6112aa565b611a4e576040517f08c379a00000000000000000000000000000000000000000000000000000000081526004018080602001828103825260208152602001807f4f776e61626c653a2063616c6c6572206973206e6f7420746865206f776e657281525060200191505060405180910390fd5b6000606b60008473ffffffffffffffffffffffffffffffffffffffff1673ffffffffffffffffffffffffffffffffffffffff16815260200190815260200160002060009054906101000a900473ffffffffffffffffffffffffffffffffffffffff169050600073ffffffffffffffffffffffffffffffffffffffff168173ffffffffffffffffffffffffffffffffffffffff161415611b38576040517f08c379a00000000000000000000000000000000000000000000000000000000081526004018080602001828103825260258152602001806133f56025913960400191505060405180910390fd5b611b43606982612196565b611b4e60698361254f565b81606b60008573ffffffffffffffffffffffffffffffffffffffff1673ffffffffffffffffffffffffffffffffffffffff16815260200190815260200160002060006101000a81548173ffffffffffffffffffffffffffffffffffffffff021916908373ffffffffffffffffffffffffffffffffffffffff1602179055508173ffffffffffffffffffffffffffffffffffffffff168173ffffffffffffffffffffffffffffffffffffffff168473ffffffffffffffffffffffffffffffffffffffff167f2dc9e208c924a5b14066ecb7121b371da427e696ad69456ed07a52cd2a710d9960405160405180910390a4505050565b606660009054906101000a900473ffffffffffffffffffffffffffffffffffffffff1681565b6000606c8383604051808383808284378083019250505092505050908152602001604051809103902060009054906101000a900473ffffffffffffffffffffffffffffffffffffffff16905092915050565b611cc26112aa565b611d34576040517f08c379a00000000000000000000000000000000000000000000000000000000081526004018080602001828103825260208152602001807f4f776e61626c653a2063616c6c6572206973206e6f7420746865206f776e657281525060200191505060405180910390fd5b611d3c611280565b73ffffffffffffffffffffffffffffffffffffffff168173ffffffffffffffffffffffffffffffffffffffff1614158015611dc55750606660009054906101000a900473ffffffffffffffffffffffffffffffffffffffff1673ffffffffffffffffffffffffffffffffffffffff168173ffffffffffffffffffffffffffffffffffffffff1614155b611e37576040517f08c379a000000000000000000000000000000000000000000000000000000000815260040180806020018281038252601c8152602001807f436c61696d61626c653a20696e76616c6964206e6577206f776e65720000000081525060200191505060405180910390fd5b80606660006101000a81548173ffffffffffffffffffffffffffffffffffffffff021916908373ffffffffffffffffffffffffffffffffffffffff16021790555050565b6060611e9a60698460008514611e915784611e95565b6068545b612686565b905092915050565b611eaa6112aa565b611f1c576040517f08c379a00000000000000000000000000000000000000000000000000000000081526004018080602001828103825260208152602001807f4f776e61626c653a2063616c6c6572206973206e6f7420746865206f776e657281525060200191505060405180910390fd5b6001606760008373ffffffffffffffffffffffffffffffffffffffff1673ffffffffffffffffffffffffffffffffffffffff16815260200190815260200160002060006101000a81548160ff02191690831515021790555050565b612043838473ffffffffffffffffffffffffffffffffffffffff1663a9059cbb905060e01b8484604051602401808373ffffffffffffffffffffffffffffffffffffffff1673ffffffffffffffffffffffffffffffffffffffff16815260200182815260200192505050604051602081830303815290604052907bffffffffffffffffffffffffffffffffffffffffffffffffffffffff19166020820180517bffffffffffffffffffffffffffffffffffffffffffffffffffffffff83818316178352505050506128de565b505050565b600073ffffffffffffffffffffffffffffffffffffffff168173ffffffffffffffffffffffffffffffffffffffff1614156120ce576040517f08c379a00000000000000000000000000000000000000000000000000000000081526004018080602001828103825260268152602001806133a56026913960400191505060405180910390fd5b8073ffffffffffffffffffffffffffffffffffffffff16603360009054906101000a900473ffffffffffffffffffffffffffffffffffffffff1673ffffffffffffffffffffffffffffffffffffffff167f8be0079c531659141344cd1fd0a4f28419497f9722a3daafe3b4186f6b6457e060405160405180910390a380603360006101000a81548173ffffffffffffffffffffffffffffffffffffffff021916908373ffffffffffffffffffffffffffffffffffffffff16021790555050565b600033905090565b6121a082826124f3565b612212576040517f08c379a00000000000000000000000000000000000000000000000000000000081526004018080602001828103825260178152602001807f4c696e6b65644c6973743a206e6f7420696e206c69737400000000000000000081525060200191505060405180910390fd5b60008260000160008373ffffffffffffffffffffffffffffffffffffffff1673ffffffffffffffffffffffffffffffffffffffff16815260200190815260200160002060000160019054906101000a900473ffffffffffffffffffffffffffffffffffffffff16905060008360000160008473ffffffffffffffffffffffffffffffffffffffff1673ffffffffffffffffffffffffffffffffffffffff16815260200190815260200160002060010160009054906101000a900473ffffffffffffffffffffffffffffffffffffffff169050808460000160008473ffffffffffffffffffffffffffffffffffffffff1673ffffffffffffffffffffffffffffffffffffffff16815260200190815260200160002060010160006101000a81548173ffffffffffffffffffffffffffffffffffffffff021916908373ffffffffffffffffffffffffffffffffffffffff160217905550818460000160008373ffffffffffffffffffffffffffffffffffffffff1673ffffffffffffffffffffffffffffffffffffffff16815260200190815260200160002060000160016101000a81548173ffffffffffffffffffffffffffffffffffffffff021916908373ffffffffffffffffffffffffffffffffffffffff16021790555060008460000160008573ffffffffffffffffffffffffffffffffffffffff1673ffffffffffffffffffffffffffffffffffffffff16815260200190815260200160002060000160006101000a81548160ff0219169083151502179055508360000160008473ffffffffffffffffffffffffffffffffffffffff1673ffffffffffffffffffffffffffffffffffffffff168152602001908152602001600020600080820160006101000a81549060ff02191690556000820160016101000a81549073ffffffffffffffffffffffffffffffffffffffff02191690556001820160006101000a81549073ffffffffffffffffffffffffffffffffffffffff0219169055505050505050565b60008260000160008373ffffffffffffffffffffffffffffffffffffffff1673ffffffffffffffffffffffffffffffffffffffff16815260200190815260200160002060000160009054906101000a900460ff16905092915050565b6125628261255c84612b29565b83612b97565b5050565b6000803090506000813b9050600081149250505090565b600060019054906101000a900460ff168061259c575061259b612566565b5b806125b357506000809054906101000a900460ff16155b612608576040517f08c379a000000000000000000000000000000000000000000000000000000000815260040180806020018281038252602e81526020018061349a602e913960400191505060405180910390fd5b60008060019054906101000a900460ff161590508015612658576001600060016101000a81548160ff02191690831515021790555060016000806101000a81548160ff0219169083151502179055505b61266182613042565b80156126825760008060016101000a81548160ff0219169083151502179055505b5050565b6060600082116126fe576040517f08c379a00000000000000000000000000000000000000000000000000000000081526004018080602001828103825260198152602001807f4c696e6b65644c6973743a20696e76616c696420636f756e740000000000000081525060200191505060405180910390fd5b61270884846124f3565b8061273f5750600073ffffffffffffffffffffffffffffffffffffffff168373ffffffffffffffffffffffffffffffffffffffff16145b6127b1576040517f08c379a00000000000000000000000000000000000000000000000000000000081526004018080602001828103825260178152602001807f4c696e6b65644c6973743a206e6f7420696e206c69737400000000000000000081525060200191505060405180910390fd5b6060826040519080825280602002602001820160405280156127e25781602001602082028038833980820191505090505b50905060008090506000859050600073ffffffffffffffffffffffffffffffffffffffff168173ffffffffffffffffffffffffffffffffffffffff1614156128305761282d87613200565b90505b5b848210156128d157600073ffffffffffffffffffffffffffffffffffffffff168173ffffffffffffffffffffffffffffffffffffffff161415612873576128d1565b8083838151811061288057fe5b602002602001019073ffffffffffffffffffffffffffffffffffffffff16908173ffffffffffffffffffffffffffffffffffffffff16815250506128c4878261326e565b9050600182019150612831565b8293505050509392505050565b6128fd8273ffffffffffffffffffffffffffffffffffffffff16613359565b61296f576040517f08c379a000000000000000000000000000000000000000000000000000000000815260040180806020018281038252601f8152602001807f5361666545524332303a2063616c6c20746f206e6f6e2d636f6e74726163740081525060200191505060405180910390fd5b600060608373ffffffffffffffffffffffffffffffffffffffff16836040518082805190602001908083835b602083106129be578051825260208201915060208101905060208303925061299b565b6001836020036101000a0380198251168184511680821785525050505050509050019150506000604051808303816000865af19150503d8060008114612a20576040519150601f19603f3d011682016040523d82523d6000602084013e612a25565b606091505b509150915081612a9d576040517f08c379a00000000000000000000000000000000000000000000000000000000081526004018080602001828103825260208152602001807f5361666545524332303a206c6f772d6c6576656c2063616c6c206661696c656481525060200191505060405180910390fd5b600081511115612b2357808060200190516020811015612abc57600080fd5b8101908080519060200190929190505050612b22576040517f08c379a000000000000000000000000000000000000000000000000000000000815260040180806020018281038252602a815260200180613518602a913960400191505060405180910390fd5b5b50505050565b60008160000160008073ffffffffffffffffffffffffffffffffffffffff1673ffffffffffffffffffffffffffffffffffffffff16815260200190815260200160002060000160019054906101000a900473ffffffffffffffffffffffffffffffffffffffff169050919050565b600073ffffffffffffffffffffffffffffffffffffffff168173ffffffffffffffffffffffffffffffffffffffff161415612c3a576040517f08c379a000000000000000000000000000000000000000000000000000000000815260040180806020018281038252601b8152602001807f4c696e6b65644c6973743a20696e76616c69642061646472657373000000000081525060200191505060405180910390fd5b612c4483826124f3565b15612cb7576040517f08c379a000000000000000000000000000000000000000000000000000000000815260040180806020018281038252601b8152602001807f4c696e6b65644c6973743a20616c726561647920696e206c697374000000000081525060200191505060405180910390fd5b612cc183836124f3565b80612cf85750600073ffffffffffffffffffffffffffffffffffffffff168273ffffffffffffffffffffffffffffffffffffffff16145b612d6a576040517f08c379a00000000000000000000000000000000000000000000000000000000081526004018080602001828103825260178152602001807f4c696e6b65644c6973743a206e6f7420696e206c69737400000000000000000081525060200191505060405180910390fd5b60008360000160008473ffffffffffffffffffffffffffffffffffffffff1673ffffffffffffffffffffffffffffffffffffffff16815260200190815260200160002060010160009054906101000a900473ffffffffffffffffffffffffffffffffffffffff169050828460000160008473ffffffffffffffffffffffffffffffffffffffff1673ffffffffffffffffffffffffffffffffffffffff16815260200190815260200160002060000160016101000a81548173ffffffffffffffffffffffffffffffffffffffff021916908373ffffffffffffffffffffffffffffffffffffffff160217905550808460000160008473ffffffffffffffffffffffffffffffffffffffff1673ffffffffffffffffffffffffffffffffffffffff16815260200190815260200160002060010160006101000a81548173ffffffffffffffffffffffffffffffffffffffff021916908373ffffffffffffffffffffffffffffffffffffffff160217905550818460000160008573ffffffffffffffffffffffffffffffffffffffff1673ffffffffffffffffffffffffffffffffffffffff16815260200190815260200160002060010160006101000a81548173ffffffffffffffffffffffffffffffffffffffff021916908373ffffffffffffffffffffffffffffffffffffffff160217905550818460000160008373ffffffffffffffffffffffffffffffffffffffff1673ffffffffffffffffffffffffffffffffffffffff16815260200190815260200160002060000160016101000a81548173ffffffffffffffffffffffffffffffffffffffff021916908373ffffffffffffffffffffffffffffffffffffffff16021790555060018460000160008473ffffffffffffffffffffffffffffffffffffffff1673ffffffffffffffffffffffffffffffffffffffff16815260200190815260200160002060000160006101000a81548160ff02191690831515021790555050505050565b600060019054906101000a900460ff16806130615750613060612566565b5b8061307857506000809054906101000a900460ff16155b6130cd576040517f08c379a000000000000000000000000000000000000000000000000000000000815260040180806020018281038252602e81526020018061349a602e913960400191505060405180910390fd5b60008060019054906101000a900460ff16159050801561311d576001600060016101000a81548160ff02191690831515021790555060016000806101000a81548160ff0219169083151502179055505b81603360006101000a81548173ffffffffffffffffffffffffffffffffffffffff021916908373ffffffffffffffffffffffffffffffffffffffff160217905550603360009054906101000a900473ffffffffffffffffffffffffffffffffffffffff1673ffffffffffffffffffffffffffffffffffffffff16600073ffffffffffffffffffffffffffffffffffffffff167f8be0079c531659141344cd1fd0a4f28419497f9722a3daafe3b4186f6b6457e060405160405180910390a380156131fc5760008060016101000a81548160ff0219169083151502179055505b5050565b60008160000160008073ffffffffffffffffffffffffffffffffffffffff1673ffffffffffffffffffffffffffffffffffffffff16815260200190815260200160002060010160009054906101000a900473ffffffffffffffffffffffffffffffffffffffff169050919050565b600061327a83836124f3565b6132ec576040517f08c379a00000000000000000000000000000000000000000000000000000000081526004018080602001828103825260178152602001807f4c696e6b65644c6973743a206e6f7420696e206c69737400000000000000000081525060200191505060405180910390fd5b8260000160008373ffffffffffffffffffffffffffffffffffffffff1673ffffffffffffffffffffffffffffffffffffffff16815260200190815260200160002060010160009054906101000a900473ffffffffffffffffffffffffffffffffffffffff16905092915050565b60008060007fc5d2460186f7233c927e7db2dcc703c0e500b653ca82273b7bfad8045d85a47060001b9050833f915080821415801561339b57506000801b8214155b9250505091905056fe4f776e61626c653a206e6577206f776e657220697320746865207a65726f206164647265737343616e5265636c61696d546f6b656e733a20746f6b656e206973206e6f74207265636f76657261626c654761746577617952656769737472793a20746f6b656e206e6f7420726567697374657265644761746577617952656769737472793a2073796d626f6c206d75737420626520616c7068616e756d657269634761746577617952656769737472793a20746f6b656e20616c726561647920726567697374657265644761746577617952656769737472793a206761746577617920616c72656164792072656769737465726564436f6e747261637420696e7374616e63652068617320616c7265616479206265656e20696e697469616c697a6564436c61696d61626c653a2063616c6c6572206973206e6f74207468652070656e64696e67206f776e65724761746577617952656769737472793a2073796d626f6c206e6f7420726567697374657265645361666545524332303a204552433230206f7065726174696f6e20646964206e6f7420737563636565644761746577617952656769737472793a2073796d626f6c20616c72656164792072656769737465726564a265627a7a7231582045ad7b0e721c8bec2a903f207079ba870bd5d6edccd1c230a744a950f13e612864736f6c63430005110032436f6e747261637420696e7374616e63652068617320616c7265616479206265656e20696e697469616c697a6564436f6e747261637420696e7374616e63652068617320616c7265616479206265656e20696e697469616c697a6564",
  "linkReferences": {},
  "deployedLinkReferences": {}
}